:020000040800F2
:10000000A806002061020008831E00084F1A00089D
:10001000811E0008BD030008452300080000000001
:10002000000000000000000000000000A101000826
:10003000BF03000800000000FD010008251F0008A4
:100040007B0200087B0200087B0200087B0200089C
:100050007B0200087B0200087B0200087B0200088C
:100060007B0200087B0200087B0200087B0200087C
:100070007B0200087B0200087B0200087B0200086C
:100080007B0200087B0200087B0200087B0200085C
:100090007B0200087B0200087B0200087B0200084C
:1000A0007B020008FD1F00087B0200087B0200089D
:1000B0007B0200087B0200087B0200087B0200082C
:1000C0007B0200087B0200087B0200087B0200081C
:1000D0007B0200087B020008392300087B0200082D
:1000E0007B0200087B0200087B0200087B020008FC
:1000F0007B0200087B0200087B0200087B020008EC
:100100007B0200087B0200087B0200087B020008DB
:100110007B0200087B0200087B0200087B020008CB
:100120007B0200087B0200087B0200087B020008BB
:100130007B0200087B0200087B0200087B020008AB
:100140007B0200087B0200087B0200087B0200089B
:100150007B0200087B0200087B0200087B0200088B
:100160007B0200087B0200087B0200087B0200087B
:100170007B0200087B0200087B02000800000000F0
:100180007B0200087B020008DFF810D000F004F9C1
:1001900000480047FD260008AFF30080A8060020B5
:1001A0002C4B19680868B0E8F04F80F30988BFF35A
:1001B0006F8F4FF0000080F311887047000000003F
:1001C00008480068006880F308884FF0000080F35A
:1001D000148862B661B6BFF34F8FBFF36F8F00DF35
:1001E00000BF00BF08ED00E0DFF80C00016841F43B
:1001F00070010160704700BF88ED00E0EFF30980F7
:10020000BFF36F8F134B1A681EF0100F08BF20ED5D
:10021000108A20E9F04F106009B44FF0500080F3CD
:100220001188BFF34F8FBFF36F8F02F057FB4FF072
:10023000000080F3118809BC19680868B0E8F04F25
:100240001EF0100F08BFB0EC108A80F30988BFF3CE
:100250006F8F704728000020EFF305807047000083
:100260000648804706480047FEE7FEE7FEE7FEE750
:10027000FEE7FEE7FEE7FEE7FEE7FEE7ED1F00080C
:10028000890100082DE9F05F0546002092469B4653
:1002900088460646814640241BE02846414647469C
:1002A000224600F069F853465A46C01A914110D3CD
:1002B00011461846224600F050F82D1A67EB010847
:1002C0004F4622460120002100F047F817EB0009B5
:1002D0004E41201EA4F10104DFDC484631462A4687
:1002E0004346BDE8F09F40EA01039B0703D009E0C5
:1002F00008C9121F08C0042AFAD203E011F8013B12
:1003000000F8013B521EF9D27047D2B201E000F86A
:10031000012B491EFBD270470022F6E710B51346A9
:100320000A4604461946FFF7F0FF204610BD30B5D7
:100330000B46014600202022012409E021FA02F5A3
:100340009D4205D303FA02F5491B04FA02F528443D
:10035000151EA2F10102F1DC30BD202A04DB203A97
:1003600000FA02F1002070479140C2F1200320FA08
:1003700003F3194390407047202A04DB203A21FA06
:1003800002F00021704721FA02F3D040C2F12002AE
:100390009140084319467047064C074D06E0E06857
:1003A00040F0010394E8070098471034AC42F6D3BC
:1003B000FFF7EEFEE82B0008082C0008FEE7704768
:1003C00072B6FEE72DE9F0410446876D00F060F952
:1003D000064694F835000025022806D08020606586
:1003E00084F834500120BDE8F0812068016821F0D4
:1003F000160101602068416921F080014161206C93
:1004000008B9A06C20B12068016821F008010160E2
:100410002068016821F0010101600CE000F038F96A
:10042000801B052807D920206065032084F835004B
:1004300084F83450D7E720680068C007EED194F8FC
:100440005C103F208840B860012084F8350084F8B3
:1004500034500020C7E790F83510022903D08021DE
:10046000416501207047052180F83510006801685A
:1004700021F00101016000207047000070B50446C2
:1004800000F006F90546601C02D0044800780444D8
:1004900000F0FEF8401BA042FAD370BD1800002007
:1004A0002DE9F84FDFF8BCA10022012503264FF00B
:1004B0000F090AF1040BAAF1040E00BF0B6805FA3C
:1004C00002F42340A34270D10F7907F00307012FF4
:1004D00001D0022F16D187684FEA420806FA08FCBD
:1004E00027EA0C07D1F80CC00CFA08FC4CEA070C00
:1004F000C0F808C04768A7430C79C4F300149440BF
:100500003C4344600C79E443A4070AD0C4684FEA32
:10051000420C06FA0CF7BC438F6807FA0CF7274326
:10052000C7600C7904F00304022C12D1D40800EB4C
:10053000840CDCF820405707FF0E09FA07F824EA7C
:100540000804D1F8108008FA07F848EA0408CCF843
:10055000208004684FEA420C06FA0CF7BC430F797E
:1005600007F0030707FA0CF7274307604C6814F4F9
:10057000403F70D03C4C276847F480472760246890
:1005800022F0030704F480440094384C07EB040C79
:10059000DCF8084897074FEA177809FA08F7BC43D0
:1005A000334FB84202D1002724E054E0314FB84223
:1005B00001D101271EE0304FB84201D1022719E0D6
:1005C0002E4FB84201D1032714E02D4FB84201D17C
:1005D00004270FE02B4FB84201D105270AE02A4F2C
:1005E000B84201D1062705E0284FB84201D10727BC
:1005F00000E0082707FA08F72743CCF80878DAF86C
:1006000000405746D1F804C09C435FEACC2C00D58B
:100610001C433C60DBF800405F46D1F804C09C43BB
:100620005FEA8C2C00D51C433C60DEF80040774626
:10063000D1F804C09C435FEA8C3C00D51C433C606D
:10064000084F083F3C68D1F804C09C435FEACC3CAB
:1006500000D51C433C60521C102AFFF42FAFBDE8AC
:10066000F88F0000083C014044380240003001404F
:10067000000002400004024000080240000C02405A
:10068000001002400014024000180240001C02400A
:1006900001488068704700001800002070B5040011
:1006A00025D094F83D00002520B984F83C50204620
:1006B00000F050F9242084F83D002068016821F002
:1006C000010101602068016841F400410160206877
:1006D000016821F40041016000F0FAFA4D4A6168B6
:1006E000914201D84C4900E04C49884201D2012096
:1006F00070BD4B492368B0FBF1F15E6826F03F0600
:100700000E435E606368934206D94FF49673594373
:100710004FF47A73B1FBF3F12368491C1E6A26F08B
:100720003F06314319626168914210D84900401E6A
:10073000B0FBF1F2521CC2F30B02042A01D20420D6
:1007400022E0B0FBF1F0401CC0F30B001CE0A268FB
:10075000F2B301EBC10303EB0116431EB3FBF6F347
:100760005B1C43F480431B0549D092B301EBC102EB
:1007700002EB0111401EB0FBF1F0401CC0F30B0076
:1007800040F4804040F400402168CA694CF6FF7391
:100790009A431043C861D4E90710014320680268F6
:1007A00022F0C00211430160D4E903010143206833
:1007B000826848F2FF339A4311438160D4E905010E
:1007C00008432168CA6822F0FF021043C86001E0B4
:1007D0000EE016E02068016841F001010160256427
:1007E000202084F83D00256384F83E50002070BD31
:1007F00001EB4106431EB3FBF6F35B1CB3E701209C
:10080000C2E701EB4101401EB0FBF1F0401CC0F318
:100810000B00B7E7A086010080841E0000093D00A0
:1008200040420F002DE9FF4F83B09A46DDE9119752
:1008300093460446DDF84080FFF72AFF054694F80A
:100840003D0020287FD119230122404920460095F0
:1008500001F090F9002876D194F83C00012872D07C
:10086000012084F83C0020680168C90703D10168B1
:1008700041F0010101602068016821F4006101601C
:10088000212084F83D00402084F83E0000262664A4
:10089000C4F82480A4F82A90608D20852C48E0625A
:1008A000CDE9007553465A462046049901F0E8F810
:1008B00070B930E02A463946204601F0DAF958B1DD
:1008C000206C042804D12068016841F400710160A3
:1008D000012007B0BDE8F08F606A216800780861E8
:1008E000606A401C6062218D491E89B22185628D3B
:1008F000521E628522685369DB435B070BD469B1E2
:1009000000781061606A401C6062208D401E208566
:10091000608D401E6085208D0028CBD12A46394647
:10092000204601F001F90028CAD154F83D0B0168B6
:1009300041F400710160202004F81E09E677667713
:100940000020C6E7FFE70220C3E700000200100016
:100950000000FFFF10B586B0044614216846FFF77B
:10096000DBFC13492068884220D11248002102682C
:1009700042F002020260006800F002000590C02010
:1009800000901220CDE9010103200390042004907F
:1009900069460948FFF784FD06481030016841F4B4
:1009A00000110160006800F40010059006B010BD51
:1009B0000054004030380240000402400248816880
:1009C0000278114481607047180000200B4810B570
:1009D000016841F400710160016841F480610160C7
:1009E000016841F480710160032000F099F80F2044
:1009F00000F006F800F04AF8002010BD003C02406C
:100A000030B505461C4887B00024016841F001015B
:100A10000160006806A900F00100009001A800F044
:100A200037F900F065F915494000B0FBF1F11548C0
:100A3000134A491E026040F2E732C0E90324C0E9CC
:100A40000114846100F0CDFC040012D10D4800F0C7
:100A5000F7FC04000DD1192000F034F8102D07D256
:100A600000222946192000F03BF80748056000E005
:100A7000012407B0204630BD4438024040420F00F8
:100A800000000140700100201C0000200C4882B0D2
:100A9000016841F480410160006800F480400090EA
:100AA0000748001F016841F0805101600068002282
:100AB00000F0805000900F21901E02B000F010B89E
:100AC00044380240002809DB00F01F020121914058
:100AD0004009800000F1E020C0F8001170470000DC
:100AE000F0B40E4B1B680C46C3F30223C3F1070599
:100AF000042D00D90425191D072901D2002300E087
:100B0000DB1E012606FA05F1491E214099409E4050
:100B1000761E16403143F0BC01F026BC0CED00E01F
:100B2000064900F0070208684FF6FF03184040EA44
:100B30000220034A10430860704700000CED00E0FB
:100B40000000FA05034908B5012008620248006860
:100B5000009008BD00000E42007000402DE9F047F3
:100B60000E46050065D0DFF81481D8F80000F7B212
:100B700000F00700B04207D288F80070D8F80000F3
:100B800000F00700B04254D128683D4C810712D5CF
:100B9000400703D5206840F4E05020602878000723
:100BA00003D5206840F4604020602068A96820F0E8
:100BB000F000084320602878C0072DD030496868CD
:100BC0000839012812D0022813D0032811D009684F
:100BD000890700292DDA216821F0030101432160F2
:100BE000FFF756FD814641F2883A0EE00968890315
:100BF000EFE709688901ECE7FFF74AFDA0EB09017F
:100C0000514502D90320BDE8F0872068696800F0EB
:100C10000C00B0EB810FEFD1D8F80010404601F086
:100C20000701B14207D90770006800F00700B04221
:100C300001D00120E7E72878400705D52068E9685A
:100C400020F4E050084320602878000706D520688B
:100C5000296920F4604040EAC100206000F058F8A3
:100C60002168084AC1F30311515CC8400649086075
:100C700006480068FFF7C4FE0020C4E7003C0240BD
:100C800008380240D02B0008240000201C0000205F
:100C90000F2202600C4A136803F0030343601368D9
:100CA00003F0F0038360136803F4E053C360126839
:100CB0004FF4E05303EAD20202610448006800F0F6
:100CC000070008607047000008380240003C0240FE
:100CD0000448054900680968044AC1F38221515C4F
:100CE000C84070472400002008380240E02B00086C
:100CF0000448054900680968044AC1F34231515C5F
:100D0000C84070472400002008380240E02B00084B
:100D1000154810B5006810F00C02144813D04110AB
:100D2000042A0FD0082A0ED10F4C241F22682368F2
:100D300002F03F025B0207D52068C0F38810A0FBD9
:100D4000010106E0084610BD2168C1F38811A1FB2E
:100D500000010023FFF796FA2168C1F30141491C05
:100D60004900B0FBF1F010BD083802400024F40047
:100D70002DE9F84F04006ED02078DFF84C93C007BF
:100D8000A9F104054AD009F104000168C1F3810109
:100D9000012908D00068C0F3810002280AD1D9F8DF
:100DA0000000400206D52868800337D56068002817
:100DB000E1D033E06068B0F5803F10D0B0F5A02FEF
:100DC000286810D020F480302860286820F4802023
:100DD00028606068A8B1FFF75BFC06460DE0286854
:100DE00040F48030F4E740F480202860F7E700BF4B
:100DF000FFF74EFC801B642873D828688003F7D562
:100E00000CE0FFF745FC064605E000BFFFF740FC9D
:100E1000801B6428F0D828688003F7D42078DFF896
:100E2000AC8280074FF0000A3ED5A748001D01683C
:100E300011F00C0F08D00068C0F3810002280BD11C
:100E4000D9F80000400207D42868800716D5E0686A
:100E5000012800D112E033E1E068B8B10120C8F800
:100E60000000FFF715FC064605E000BFFFF710FC89
:100E7000801B0228C0D828688007F7D52868216918
:100E800020F0F80040EAC10028600DE0C8F800A09A
:100E9000FFF7FEFB064604E0FFF7FAFB801B022883
:100EA0001FD828688007F7D42078000722D5864FFE
:100EB00087486169703771B101210160FFF7E8FB74
:100EC000064604E0FFF7E4FB801B022809D83868D7
:100ED0008007F7D50EE0C0F800A0FFF7D9FB064663
:100EE00005E082E0FFF7D4FB801B02287DD838683C
:100EF0008007F7D42078400768D5DFF8CCB1002709
:100F00000BF13C0BDBF80000C0000BD4DBF8001049
:100F100041F08051CBF80010DBF80000012700F011
:100F2000805000906B4E3068C00510D4306840F49B
:100F300080703060FFF7ACFB009005E0FFF7A8FB86
:100F40000099401A022850D83068C005F6D55E4E88
:100F5000A0686C3601280FD00528306810D020F02A
:100F600001003060306820F004003060A068B8B143
:100F7000FFF78EFB00900FE0306840F00100F4E7CF
:100F800040F004003060F7E7FFF782FB0099411A58
:100F900041F28830814266D830688007F4D50EE08F
:100FA000FFF776FB009007E0FFF772FB0099411A0C
:100FB00041F28830814256D830688007F4D42FB18E
:100FC000DBF8001021F08051CBF80010A069C8B305
:100FD0003D49091D0968C1F3810102294AD002284F
:100FE000504607D0C8F8600000E03CE0FFF750FB37
:100FF00004463BE04746C8F86000FFF749FB064659
:1010000005E000BFFFF744FB801B02282BD82868AF
:101010008001F7D4D4E907010843A16A2E4A4908A0
:1010200002EB0141626A41EA8211084394F82C10F4
:1010300040EA0161C9F8001001203866FFF728FB7B
:10104000044606E03EE000BFFFF722FB001B02283B
:1010500009D828688001F7D534E000BFFFF718FBF6
:10106000001B022802D90320BDE8F88F2868800100
:10107000F4D427E00128F7D0D9F80000E26900F4A1
:10108000800191421CD1226A00F03F01914217D1A8
:1010900047F6C071626A0140B1EB821F10D1A26AAB
:1010A0004FF0FF3300F4403103EB5202B1EB024F3B
:1010B00006D194F82C1000F07060B0EB016F01D0F5
:1010C0000120D1E70020CFE704380240000047426A
:1010D000800E4742007000400000FFFF10B500681E
:1010E0000B4641680D480140080CD870C1F3042438
:1010F0005C7001F03F049C70C1F34231197052B929
:1011000000F0C0FED870587800F0BCFE5870987897
:1011100000F0B8FE9870002010BD00003FFFFF00F7
:1011200010B50B460168896A596001680969C1F305
:101130000E019960006801680D480140C1F3054047
:101140001870C1F306245C7001F07F049C70890D57
:10115000D97052B900F096FE1870587800F092FEDF
:101160005870987800F08EFE9870002010BD000036
:101170007F7F7F0010B5040002D0607F10B106E0D1
:10118000012010BD00202077204600F039F8022011
:1011900060772168CA20486221685320486220464F
:1011A00000F086FE30BB20688168144A11408160DF
:1011B0002168886862681043D4E904231A43104305
:1011C00088602168E068086120680169228941EA35
:1011D00002410161204600F08FFE58B921680A6C77
:1011E00022F480220A6421680A6CA3691A430A6403
:1011F000012161772268FF21516210BDBFFF8FFF7F
:1012000038B511480024016841F080510160006840
:1012100000F080500090FFF795FC0C490120086019
:101220000C600A4940310860074934310A68920766
:10123000FCD5054938390A6822F4F8120A600349D6
:10124000091F086038BD000040380240400E474288
:1012500070B50446007F0B46012819D00126267779
:1012600002206077B2B19878D97840EA0145587881
:101270001978000240EA413005432168CA204862DB
:10128000216853204862204600F012FED0B122E0CF
:10129000022070BD5878C10603D500F0EF000A3077
:1012A0005870D87800F0F7FD0204587800F0F3FD8C
:1012B00042EA0022987800F0EEFD0243187842EAF4
:1012C0004035DAE70748054020684560204600F0D1
:1012D00013FE00B966772268FF2151620021217751
:1012E00070BD00003FFFFF002DE9F0410446007F84
:1012F0000D46012823D04FF0010884F81C800220FD
:1013000060772068002780684FEA4060D2B10028EB
:1013100000DBEF70A878297840EA01466878E97820
:10132000000240EA815006432168CA2048622168D1
:1013300053204862204600F0BBFDB8B12CE00220EB
:10134000BDE8F081002800DBEF70287800F0A3FDF5
:101350000204687800F09FFD42EA0022A87800F0BD
:101360009AFD0243E87842EA8056DDE70D480640E0
:10137000206806602068816821F480218160D5E9B9
:101380000301084321688A6810438860204600F002
:10139000B3FD08B984F81D802268FF2151622777C8
:1013A000CEE700007F7F7F0070B504460068C1680B
:1013B00021F0A001C160FFF76BF905464FF47A7682
:1013C00007E000BFFFF764F9401BB04201D90320DA
:1013D00070BD2068C0688006F4D5002070BD7047DD
:1013E000704710B5040003D094F83D0010B107E039
:1013F000012010BD002084F83C00204600F01EF8BB
:10140000022084F83D00211D206800F0FDFD012030
:1014100084F8460084F83E0084F83F0084F84000D9
:1014200084F8410084F8420084F8430084F84400C2
:1014300084F8450084F83D00002010BD704700008E
:1014400090F83D10012901D001207047022180F859
:101450003D100168CA6842F00102CA600068114983
:10146000884214D0B0F1804F11D00F4988420ED07D
:101470000E4988420BD00E49884208D00D49884257
:1014800005D00D49884202D00C49884204D18168B8
:1014900001F00701062903D0016841F00101016054
:1014A0000020704700000140000400400008004098
:1014B000000C0040000401400040014000180040C2
:1014C000704770B50446006801694FF00005C943D4
:1014D000890715D4C168C943890711D4E91E016180
:1014E00001202077206880698007204602D0FFF71E
:1014F000E7FF04E000F098F8204600F096F8257722
:1015000020680169C943490717D4C168C94349071D
:1015100013D46FF0040101610220207720688069F4
:1015200010F4407F204602D0FFF7CAFF04E000F02D
:101530007BF8204600F079F8257720680169C943D7
:10154000090716D4C168C943090712D46FF008010E
:101550000161042020772068C0698007204602D0FE
:10156000FFF7AEFF04E000F05FF8204600F05DF802
:10157000257720680169C943C90617D4C168C943E2
:10158000C90613D46FF0100101610820207720688C
:10159000C06910F4407F204602D0FFF791FF04E0BD
:1015A00000F042F8204600F040F8257720680169F5
:1015B000C943C90708D1C168C943C90704D1891EF5
:1015C0000161204600F032F820680169C94309062C
:1015D00009D4C168C943090605D46FF080010161CF
:1015E0002046FFF7FCFE20680169C943490609D47B
:1015F000C168C943490605D46FF040010161204626
:1016000000F01EF820680169C94389060BD4C1683F
:10161000C943890607D46FF0200101612046BDE867
:101620007040FFF7DDBE70BD70477047006803492A
:10163000884201D1FFF7C2B97047000000000140A5
:101640007047704770470000F8B5016804460868A5
:10165000CA684B6910F00F0F4FF0000559D003F026
:10166000010602F49077374365D0C10705D0D10554
:1016700003D5216C41F001012164410705D5D9074B
:1016800003D0216C41F002012164810705D5D907FF
:1016900003D0216C41F004012164010707D502F059
:1016A0002001314303D0216C41F008012164216CF9
:1016B00000293AD0800604D5900602D5204600F0D5
:1016C00036FD20684069216CC0F38010090700D402
:1016D00060B3204600F004FD20684069400621D533
:1016E0002068143050E8001F21F0400140E800124B
:1016F000002AF5D1A06BA8B16C490165A06BFEF77B
:10170000AAFE002811D0A06B016D01B0BDE8F04029
:10171000084783060FD593060DD52046BDE8F8404F
:1017200000F005BD2046FFF78DFFF8BD2046FFF70E
:1017300089FF2564F8BD266B2023012E79D1C606CA
:1017400077D5D60675D50868486800904869400680
:1017500040D5A16B086840680004000CEAD0A28D57
:101760008242E7D9E085C869B0F5807F2DD0206836
:101770000C3050E8001F21F4807140E80012002A6C
:10178000F5D12068143050E8001F21F0010140E835
:101790000012002AF5D12068143050E8001F21F013
:1017A000400140E80012002AF5D184F83E3025635C
:1017B00020680C3050E8001F21F0100140E80012B2
:1017C000002AF5D1A06BFEF7FDFDA08DE18D401A3A
:1017D00081B229E0A08DE18D401A81B2E08D002810
:1017E000A8D00029A6D020680C3050E8002F22F4A1
:1017F000907240E80026002EF5D12068143050E8A1
:10180000002F22F0010240E80026002EF5D184F8D6
:101810003E30256320680C3050E8002F22F0100283
:1018200040E80023002BF5D12046FFF70AFFF8BD62
:10183000FFE705062BD5150629D594F83D0021288C
:10184000F5D1A068B0F5805F01D12069B0B1206A00
:10185000411C2162216800784860E08C401E000431
:10186000000CE084E3D12068C16821F08001C160F0
:101870002068C16841F04001C160D8E7206A008853
:10188000C0F308004860206A801C2062E5E740063B
:10189000CDD55006CBD5CA68204622F04002CA609A
:1018A00084F83D3000F0D2F8C1E70000D1200008F4
:1018B00070B5040004D094F83D00002510B106E096
:1018C000012070BD84F83C50204600F023F824200D
:1018D00084F83D002068C16821F40051C1602046B1
:1018E00000F086FC2068016921F4904101612068C4
:1018F000416921F02A0141612068C16841F4005129
:10190000C1602564202084F83D0084F83E0000205A
:1019100070BD0000F0B587B0044614216846FEF79C
:10192000FBFC274F236800222649022403250726B3
:101930002548BB421CD1234B14331F6847F01007C6
:101940001F601B6803F0100305930B6843F001034D
:101950000B60096802AB01F0010105916902CDE954
:10196000001483E864006946FEF79AFD07B0F0BDF5
:10197000164FBB42FAD1134B10331F6847F40037A0
:101980001F601B6803F4003305930B6843F00103E9
:101990000B60096802AB01F0010105910C21CDE952
:1019A000001483E864006946FEF77AFD00220521F1
:1019B0002620FFF795F82620FFF784F8D6E70000E9
:1019C0000010014030380240000002400044004056
:1019D00090F83E30202B0ED159B152B190F83C30E6
:1019E000012B08D0012380F83C300023036300F072
:1019F00085BC0120704702207047000008B50068D0
:101A00000E49884218D100200D4903460090481E17
:101A10006A46C06800F090FF012209490948FFF7B3
:101A2000D7FF0098002807D007494FF08050086082
:101A3000BFF34F8FBFF36F8F08BD0000004400401D
:101A4000010000202C01002004ED00E07047FEE7BB
:101A500001684A69D24352050FD46FF480624A612B
:101A6000002140F8301F202242738173026942F046
:101A700004020261017301207047002070470000DA
:101A80002DE9F843044600680D46DDE90897016832
:101A90009846164641F4807101604B4600224FF093
:101AA00001112046009700F065F848B120680068F1
:101AB000C00502D54FF4007020640320BDE8F88310
:101AC000216805F0FE0008613B464A46154920465C
:101AD00000F084F888B920684169806900903A462E
:101AE0004946204600F0C5F848B1206C042804D1CE
:101AF0002068016841F4007101600120DEE7F5B261
:101B0000B8F1010F09D02168300A08613A46494608
:101B1000204600F0AEF80028E7D1206805610020DB
:101B2000CCE700000200010070B516460D460446E1
:101B30000DE02046FFF78CFF08B1012070BD681C46
:101B400005D0FEF7A5FD801BA84207D835B1206857
:101B50004069C0434007ECD4002070BD002044F829
:101B6000300F20216173A073216941F020012161B0
:101B70002073E2E72DE9F0471E4690460D460446E5
:101B8000C1F30747DDF8209008E0701C06D0FEF78F
:101B90007FFDA0EB0900B0420FD876B12068012F7D
:101BA00018D0806925EA00000004000C14D0002140
:101BB0004145EAD00020BDE8F087002044F8300F0E
:101BC00020216173A073216941F0200121612073FC
:101BD0000120F0E74069E5E70121E9E72DE9F04759
:101BE0009A4691460E46044600254FF02008C1F360
:101BF000074725E020684069C043400514D42068A9
:101C0000016841F40071016021686FF480604861EF
:101C1000256384F83D8084F83E50206C40F0040039
:101C2000206484F83C501FE0B9F1FF3F08D0FEF774
:101C30002FFDA0EB0A0149450CD8B9F1000F09D0DE
:101C40002068012F13D0806926EA00000004000CF0
:101C50000BD0CFE744F8305F84F80D80A57320697E
:101C600040F02000206125730120BDE8F087406925
:101C7000EAE770B516460D4604460DE02046FFF72C
:101C8000E7FE08B1012070BD681C05D0FEF700FD1D
:101C9000801BA84207D835B120684069C0430006C0
:101CA000ECD4002070BD002044F8300F2021617377
:101CB000A073216941F0200121612073E2E7000057
:101CC0007FB5012403AD0020CDE900548DF80C0050
:101CD000642623466B22D02109480296FEF7A2FD16
:101CE0006420FEF7CBFB1020CDE900548DF80C00EA
:101CF00001231C22D02102480296FEF793FD7FBDEE
:101D000074000020114808B5016841F00401016029
:101D1000016801F004010091016841F08001016057
:101D2000016801F080010091016841F0010101604A
:101D3000016801F001010091016841F002010160B8
:101D4000006800F00200009008BD0000303802403A
:101D50000D4810B50B4901600C49416000214FF45A
:101D600080428160C0E9031241618161C161016209
:101D7000FEF794FC002803D0BDE81040FEF720BB1E
:101D800010BD00000054004074000020A086010037
:101D900010B586B014216846FEF7BEFA1B48002431
:101DA00019490594C0E900147F218160FF21C0E931
:101DB000031444618461FFF7DDF908B1FEF700FB0D
:101DC0008DF800408DF801408DF802400394012207
:101DD00069460E480494FFF787FA08B1FEF7F0FA57
:101DE00001208DF814008DF815008DF816000246BC
:101DF0008DF8174005A90548FFF72AFA002801D0F9
:101E0000FEF7DEFA06B010BD00280040C800002032
:101E10000C4810B50A4901604FF4E13141600021DE
:101E200081600C22C160C0E904128161C161FFF7C9
:101E30003FFD002803D0BDE81040FEF7C1BA10BD39
:101E400000100140E80000200C4810B50A4901606C
:101E50004FF4E1314160002181600C22C160C0E992
:101E600004128161C161FFF723FD002803D0BDE8A2
:101E70001040FEF7A5BA10BD004400402C01002020
:101E8000FEE7FEE7010901EB810100F00F0000EB26
:101E90004100C0B27047002103E0491C0A38C9B2B2
:101EA000C0B20A28F9D2090740EA11607047000061
:101EB0002DE9F041044600680025C168490618D4A0
:101EC000C16841F08001C160FEF7E2FB06464FF4B5
:101ED0007A78042707E000BFFEF7DAFB801B404555
:101EE00001D9677701252068C068400601D4002D1C
:101EF000F2D02846BDE8F08170B5044600680025A0
:101F0000C16821F08001C16020688068800606D425
:101F10002046FFF749FA10B10420607701252846D2
:101F200070BD000010B5502080F31188BFF34F8FB3
:101F3000BFF36F8F00F060FD18B104494FF080507F
:101F40000860002080F3118810BD000004ED00E05F
:101F500030B593B030216846FEF7DEF914210CA8A5
:101F6000FEF7DAF91F480025016841F08051016051
:101F7000006800F0805011901B48016841F48041D6
:101F800001600068022400F4804011900920009054
:101F90004FF4803001900120CDE9050480050790C1
:101FA000082008904FF4A870CDE9090404200B9094
:101FB0006846FEF7DDFE08B172B6FEE70CA90F20F9
:101FC00081E831004FF4A0500F904FF480501090F2
:101FD00005210CA8FEF7C2FD002801D072B6FEE76D
:101FE00013B030BD40380240007000400248016824
:101FF00041F470010160704788ED00E00148FFF78F
:1020000060BA000070010020F0B50268254C264D32
:10201000264E274F274B4FF0804CA04209D06045F9
:1020200007D0A84205D0B04203D0B84201D09842B0
:1020300004D122F0700E4A6842EA0E02A0421BD080
:10204000604519D0A84217D0B04215D0B84213D07D
:10205000984211D0184DA8420ED0184DA8420BD06E
:10206000174DA84208D0174DA84205D0164DA842DA
:1020700002D0164DA84203D122F44075CA682A4303
:102080004D6922F080022A4302608A68C2620A68AF
:102090008262A04201D0984201D109690163012105
:1020A0004161F0BD00000140000400400008004014
:1020B000000C004000040140004001400044014089
:1020C0000048014000180040001C00400020004073
:1020D00010B5806B0021C185C184FFF7B3FA10BD34
:1020E00001680C3151E8002F22F4907241E800237E
:1020F000002BF5D10168143151E8002F22F00102C4
:1021000041E80023002BF5D1016B012909D10168B9
:102110000C3151E8002F22F0100241E80023002B7F
:10212000F5D1202180F83E1000210163704708B5E9
:1021300090F83E10222901D0022008BD82684FF499
:1021400080539A4201D1016921B1816A9A421BD020
:102150004AB10AE00268816A5268C2F308020A8042
:10216000816A891C08E0026972B10268526802F053
:102170007F020A70816A491C8162C18D491E09046F
:10218000090CC18503D019E002685268F1E70168C3
:10219000CA6822F02002CA600168CA6822F480720C
:1021A000CA6001684A6922F001024A61202180F870
:1021B0003E10016B012903D0FFF720FC002008BD71
:1021C0000021016301680C3151E8002F22F0100258
:1021D00041E80023002BF5D101680A68D20602D538
:1021E0000A6849680091818DFFF72BFAE6E7000045
:1021F00070B5044600680169E26821F4405111435A
:1022000001612169A068E2690843616911430843DB
:102210002168CA6849F20C639A430243CA60206885
:102220004169A26921F4407111434161314920683B
:10223000884202D03049884202D1FEF759FD01E0C0
:10224000FEF746FDE2690023192164253226B2F526
:10225000004F626828D0A0FB0101930F9200FEF7A7
:1022600011F80146B0FBF5F06FF01802504301EB96
:10227000800006EB0010B0FBF5F000F0F002B1FBBF
:10228000F5F002EB0012B1FBF5F06FF018035843C4
:1022900001EB800006EB0010B0FBF5F000F00F0042
:1022A00021681044886070BDA0FB010192185B4159
:1022B000FDF7E8FF0146B0FBF5F00201B1FBF5F0D8
:1022C0006FF01803584301EB800006EBC000B0FB31
:1022D000F5F000F0F80002EB4002B1FBF5F05843D6
:1022E00001EB800006EBC000B0FBF5F000F007004A
:1022F000D6E7000000100140001401408162828591
:10230000C28500210164222280F83E2080F83C1022
:10231000016921B10168CA6842F48072CA6001682B
:102320004A6942F001024A610068C16841F0200137
:10233000C1600020704700000148FFF785B9000028
:102340002C010020FEE700000FB4054B10B503A9D7
:10235000044A029800F028F810BC5DF814FB000055
:10236000ED260008700000200907090E002804DB94
:1023700000F1E02080F80014704700F00F0000F139
:10238000E02080F8141D704702E008C8121F08C141
:10239000002AFAD170477047002001E001C1121FE6
:1023A000002AFBD1704700002DE9FF4F8BB0884613
:1023B0000546002606E025280BD0DDE90D129047E2
:1023C0006D1C761C28780028F5D10FB03046BDE88A
:1023D000F08F0024A146A2460122AE4900E004434A
:1023E00015F8013F203B02FA03F00842F7D12878A4
:1023F0002A2810D06FF02F022878A0F13001092987
:1024000015D809EB890102EB410144F0020400EB0D
:1024100001096D1CF0E758F8041B5FEA010903D5B8
:1024200044F40054C9F1000944F002046D1C2878FA
:102430002E2817D115F8010F44F004042A280ED0D5
:102440006FF02F022878A0F1300109290AD80AEB91
:102450008A0102EB410100EB010A6D1CF2E758F81A
:1024600004AB6D1C28786C280FD006DC4C2817D0E4
:1024700068280DD06A2814D104E0742810D07A2876
:102480000FD10DE044F400140AE044F4801401E09C
:1024900044F440146978814202D104F580146D1C23
:1024A0006D1C2878692865D006DC00288DD063284B
:1024B00027D0642806D15DE06E2808D073282AD082
:1024C000752877D0DDE90D129047761CE0E0C4F363
:1024D0000250022809D003280DD0D8F80010042893
:1024E0000DD00E6008F10408D2E0D8F80010F21701
:1024F000C1E90062F6E7D8F800100E80F2E70E702E
:10250000F0E718F8041B8DF8001000208DF801008A
:10251000EB46012003E058F804BB4FF0FF306107A1
:102520004FF0000701D40AE07F1C57450DDA8742BF
:10253000FADB1BF807100029F6D106E07F1C874262
:10254000FCDB1BF807100029F8D1DDE90D23A9EB0E
:1025500007008146214600F0B1F83044C61904E076
:10256000DDE90D121BF8010B90477F1EF8D22146C2
:10257000484688E058F8040BC4F302514FF00A0BA8
:10258000032900D100B2042900D140B2002802DAA8
:1025900040422D2102E0210505D52B218DF8241084
:1025A000012104E006E0E10710D02021F6E708AFA2
:1025B000089113E058F8040BC4F302514FF00A0BD2
:1025C000032900D180B2042900D1C0B20021EEE776
:1025D0005946FDF7ACFE303107F8011D0028F7D150
:1025E000ADEB070000F1200B600702D524F4803426
:1025F00001E04FF0010ADA4502DDAAEB0B0000E032
:102600000020824600EB0B0108980144A9EB010071
:102610000A90E00306D4DDE90D2321460A9800F074
:102620004DF806444FF0000908E009A911F8090027
:10263000DDE90D12904709F10109761C08998945D9
:10264000F3DBE0030CD5DDE90D2321460A9800F009
:1026500035F8064404E0DDE90D1230209047761C81
:10266000BAF10001AAF1010AF5DC05E0DDE90D127D
:1026700017F8010B9047761CBBF10001ABF1010B81
:10268000F4DC0A982146DDE90D2300F005F8064444
:102690006D1C97E6092801002DE9F041044600254C
:1026A0001E461746880404D405E039462020B0476A
:1026B0006D1C641EF9D52846BDE8F0812DE9F04176
:1026C000044600251E469046C80301D5302700E089
:1026D0002027880404D505E041463846B0476D1CE4
:1026E000641EF9D52846BDE8F081000002490A6859
:1026F0001206FCD548607047001001408CB0FEF710
:1027000065F9FFF725FCFFF7FDFAFFF781FBFFF7FF
:102710001FFBFFF73DFBFFF797FBFFF739FBFFF7C9
:10272000CFFA14216846FDF7F7FD0B208DF8000065
:102730003B208DF80100002432208DF80200039424
:102740002246694617480494FEF7CEFD19200594E9
:102750008DF8170005208DF8150016208DF816004D
:1027600004208DF81400002205A90E48FEF770FD24
:102770004FF47A7400220BA90A48FEF7AFFC00223E
:1027800006A90848FEF7CCFC9DF81A309DF81920E0
:102790009DF8181004A0FFF7D7FD2046FDF76EFE48
:1027A000E8E70000C8000020253032643A253032C6
:1027B000643A253032640D0A000000002DE9F04132
:1027C000856B174604460026026C82B1C7B1E068EB
:1027D000FDF789FDE168206C091AE16022689142E9
:1027E00002D2A168081AE060022F16D017E0206814
:1027F000A8B9A06800F066F906460020A0600EE0C7
:102800006068FDF770FD216C606808446060A16835
:10281000884204D32068606001E005B16D1E6D1C24
:10282000A5633046BDE8F0810648416B096829B1CF
:10283000416BC968C9684968816270474FF0FF31D0
:10284000FAE7000028000020D0E9013201699A600F
:10285000D0E901235A604A68824201D182684A6005
:10286000002202610868401E0860086870474268DC
:102870004A6093688B609368596091600861016851
:10288000491C01607047000010B5FDF7E5FC1149D7
:1028900010280ED300F1E02090F8F0030A7890425F
:1028A00007D2502080F31188BFF34F8FBFF36F8F93
:1028B000FEE709480068896800F4E060884207D9AB
:1028C000502080F31188BFF34F8FBFF36F8FFEE767
:1028D00010BD0000640000200CED00E01448016B06
:1028E00011B10121C16170470021C1610169B1FAD3
:1028F00081F1C1F11F0101EB81020E4951F8223033
:102900006BB101EB820101F108034A6852684A6029
:102910009A4201D152684A60D168016070475020E4
:1029200080F31188BFF34F8FBFF36F8FFEE7000076
:1029300028000020B80100202DE9F0471F469046EE
:102940008946040003D0B9F1000F08D011E05020EF
:1029500080F31188BFF34F8FBFF36F8FFEE7206CBA
:1029600038B1502080F31188BFF34F8FBFF36F8FC2
:10297000FEE7022F0AD1E06B012807D0502080F338
:102980001188BFF34F8FBFF36F8FFEE7FFF77CFF18
:102990005020EFF3118680F31188BFF34F8FBFF300
:1029A0006F8FA06BE16B884206D3022F04D000200A
:1029B00086F31188BDE8F08794F94550A06B3A463C
:1029C00049462046FFF7FAFE681C04D06D1C84F8C7
:1029D00045500120ECE7606A0028FAD004F1240099
:1029E00000F0BCF80028F4D0B8F1000FF1D00121BC
:1029F000C8F80010EDE700002DE9F0412F4C00264B
:102A0000206B28B1A069401CA0613046BDE8F08170
:102A1000E5686D1CE56013D1606B006838B150202B
:102A200080F31188BFF34F8FBFF36F8FFEE7606BAA
:102A3000A16B6163A063206A401C2062FFF7F4FE73
:102A4000A06ADFF87C80854209D3606B0068A0B182
:102A5000606BC068C7687868854211D2A062206840
:102A6000C06A00EB800158F82100012800D9012636
:102A7000E0690028C9D00126C7E74FF0FF30EDE735
:102A8000381DFFF7E1FEB86A18B107F11800FFF72B
:102A9000DBFEF96A0120226988401043206101EBC6
:102AA000810108EB8100391DFFF7E1FEF86A21681A
:102AB000C96A8842C9D30126C7E700002800002060
:102AC000B801002070B504004FF0000140D0214D46
:102AD0002868844207D0502080F31188BFF34F8FBD
:102AE000BFF36F8FFEE7A06C38B1401EA064636C2B
:102AF000E26A9A422CD040B12AE0502080F311883B
:102B0000BFF34F8FBFF36F8FFEE7201DFFF79CFED3
:102B1000114A012150B9E06A00EB800352F82330DA
:102B200023B92B6901FA00F083432B61606CE062EA
:102B3000C0F10700A061E06A2B6981401943296157
:102B400000EB800002EB8000211DFFF790FE0121C9
:102B5000084670BD28000020B80100202DE9F04192
:102B6000C068C468ACB104F118000746FFF76CFEFA
:102B7000154D286B0126A0B139461448FFF777FEA2
:102B8000E06A2968C96A88421CD90120EE61BDE863
:102B9000F081502080F31188BFF34F8FBFF36F8F08
:102BA000FEE7201DFFF750FEE16A2A6906FA01F0F0
:102BB0001043286101EB81000449B43901EB800026
:102BC000211DDBE70020E2E7280000206C02002046
:102BD00000000000000000000102030406070809CD
:102BE0000000000001020304082C0008000000207F
:102BF00074000000882300087C2C0008740000206A
:102C000034060000982300080000000000000000C7
:102C100000000000000000000000000000000000B4
:102C20000100000010000000000000000024F4007B
:102C30000000000000000000000000000000000094
:102C40000000000000000000000000000000000084
:102C50000000000000000000000000000000000074
:102C60000000000000000000000000000000000064
:0C2C7000AAAAAAAA0000000000000000B0
:040000050800018965
:00000001FF
