:020000040800F2
:100000002045002061020008BF230008451D0008AC
:10001000BD230008F1030008B52A00080000000015
:10002000000000000000000000000000A101000826
:10003000F303000800000000FD0100081D26000871
:100040007B0200087B0200087B0200087B0200089C
:100050007B0200087B0200087B0200087B0200088C
:100060007B0200087B0200087B0200087B0200087C
:100070007B0200087B0200087B0200087B0200086C
:100080007B0200087B0200087B0200087B0200085C
:100090007B0200087B0200087B0200087B0200084C
:1000A0007B020008F52600087B0200087B0200089E
:1000B0007B0200087B0200087B0200087B0200082C
:1000C0007B0200087B0200087B0200087B0200081C
:1000D0007B0200087B020008A92A00087B020008B6
:1000E0007B0200087B0200087B0200087B020008FC
:1000F0007B0200087B0200087B0200087B020008EC
:100100007B0200087B0200087B0200087B020008DB
:100110007B0200087B0200087B0200087B020008CB
:100120007B0200087B0200087B0200087B020008BB
:100130007B0200087B0200087B0200087B020008AB
:100140007B0200087B0200087B0200087B0200089B
:100150007B0200087B0200087B0200087B0200088B
:100160007B0200087B0200087B0200087B0200087B
:100170007B0200087B0200087B02000800000000F0
:100180007B0200087B020008DFF810D000F01EF9A7
:10019000004800474D300008AFF3008020450020A4
:1001A0002C4B19680868B0E8F04F80F30988BFF35A
:1001B0006F8F4FF0000080F311887047000000003F
:1001C00008480068006880F308884FF0000080F35A
:1001D000148862B661B6BFF34F8FBFF36F8F00DF35
:1001E00000BF00BF08ED00E0DFF80C00016841F43B
:1001F00070010160704700BF88ED00E0EFF30980F7
:10020000BFF36F8F134B1A681EF0100F08BF20ED5D
:10021000108A20E9F04F106009B44FF0500080F3CD
:100220001188BFF34F8FBFF36F8F03F0E9FB4FF0DF
:10023000000080F3118809BC19680868B0E8F04F25
:100240001EF0100F08BFB0EC108A80F30988BFF3CE
:100250006F8F704728000020EFF305807047000083
:100260000648804706480047FEE7FEE7FEE7FEE750
:10027000FEE7FEE7FEE7FEE7FEE7FEE7E52600080D
:10028000890100082DE9F05F0546002092469B4653
:1002900088460646814640241BE02846414647469C
:1002A000224600F082F853465A46C01A914110D3B4
:1002B00011461846224600F069F82D1A67EB01082E
:1002C0004F4622460120002100F060F817EB00099C
:1002D0004E41201EA4F10104DFDC484631462A4687
:1002E0004346BDE8F09F40EA01039B0703D009E0C5
:1002F00008C9121F08C0042AFAD203E011F8013B12
:1003000000F8013B521EF9D27047D2B201E000F86A
:10031000012B491EFBD270470022F6E710B51346A9
:100320000A4604461946FFF7F0FF204610BD30B5D7
:1003300005462A460B4612F8010B13F8014B08B18B
:10034000A042F8D01CB1002802D06D1CF1E728466D
:1003500030BD421C10F8011B0029FBD1801A7047E8
:1003600030B50B46014600202022012409E021FA85
:1003700002F59D4205D303FA02F5491B04FA02F582
:100380002844151EA2F10102F1DC30BD202A04DB55
:10039000203A00FA02F1002070479140C2F1200398
:1003A00020FA03F3194390407047202A04DB203AD7
:1003B00021FA02F00021704721FA02F3D040C2F185
:1003C000200291400843194670470000064C074D33
:1003D00006E0E06840F0010394E807009847103415
:1003E000AC42F6D3FFF7D4FE684400088844000806
:1003F000FEE7704710B50446FFF7ABFF214682B217
:10040000BDE810404FF47A73014801F041BC000090
:10041000A003002072B6FEE72DE9F0410446876D87
:1004200000F06EF9064694F835000025022806D043
:100430008020606584F834500120BDE8F081206898
:10044000016821F0160101602068416921F08001F6
:100450004161206C08B9A06C20B12068016821F0CE
:10046000080101602068016821F0010101600CE0D1
:1004700000F046F9801B052807D92020606503207D
:1004800084F8350084F83450D7E720680068C00746
:10049000EED194F85C103F208840B860012084F8C9
:1004A000350084F834500020C7E790F83510022951
:1004B00003D08021416501207047052180F8351067
:1004C0000068016821F00101016000207047000010
:1004D00070B5044600F014F90546601C02D00448CB
:1004E0000078044400F00CF9401BA042FAD370BD20
:1004F000180000202DE9F84FDFF8BCA100220125EB
:1005000003264FF00F090AF1040BAAF1040E00BFF5
:100510000B6805FA02F42340A34270D10F7907F06B
:100520000307012F01D0022F16D187684FEA420836
:1005300006FA08FC27EA0C07D1F80CC00CFA08FCF4
:100540004CEA070CC0F808C04768A7430C79C4F30D
:10055000001494403C4344600C79E443A4070AD05F
:10056000C4684FEA420C06FA0CF7BC438F6807FADE
:100570000CF72743C7600C7904F00304022C12D156
:10058000D40800EB840CDCF820405707FF0E09FA72
:1005900007F824EA0804D1F8108008FA07F848EAB6
:1005A0000408CCF8208004684FEA420C06FA0CF7E5
:1005B000BC430F7907F0030707FA0CF727430760DE
:1005C0004C6814F4403F70D03C4C276847F4804797
:1005D0002760246822F0030704F480440094384C18
:1005E00007EB040CDCF8084897074FEA177809FA7C
:1005F00008F7BC43334FB84202D1002724E054E04F
:10060000314FB84201D101271EE0304FB84201D12D
:10061000022719E02E4FB84201D1032714E02D4FD5
:10062000B84201D104270FE02B4FB84201D1052772
:100630000AE02A4FB84201D1062705E0284FB84208
:1006400001D1072700E0082707FA08F72743CCF86D
:100650000878DAF800405746D1F804C09C435FEAB6
:10066000CC2C00D51C433C60DBF800405F46D1F841
:1006700004C09C435FEA8C2C00D51C433C60DEF830
:1006800000407746D1F804C09C435FEA8C3C00D51B
:100690001C433C60084F083F3C68D1F804C09C43B1
:1006A0005FEACC3C00D51C433C60521C102AFFF48E
:1006B0002FAFBDE8F88F0000083C014044380240ED
:1006C00000300140000002400004024000080240E7
:1006D000000C0240001002400014024000180240CA
:1006E000001C0240426921EA02030A4043EA024137
:1006F000816170470AB1816170470904FBE700001E
:1007000001488068704700001800002070B50400A0
:1007100025D094F83D00002520B984F83C502046AF
:1007200000F0B4F9242084F83D002068016821F02D
:10073000010101602068016841F400410160206806
:10074000016821F40041016000F0F0FB4D4A61684E
:10075000914201D84C4900E04C49884201D2012025
:1007600070BD4B492368B0FBF1F15E6826F03F068F
:100770000E435E606368934206D94FF49673594303
:100780004FF47A73B1FBF3F12368491C1E6A26F01B
:100790003F06314319626168914210D84900401EFA
:1007A000B0FBF1F2521CC2F30B02042A01D2042066
:1007B00022E0B0FBF1F0401CC0F30B001CE0A2688B
:1007C000F2B301EBC10303EB0116431EB3FBF6F3D7
:1007D0005B1C43F480431B0549D092B301EBC1027B
:1007E00002EB0111401EB0FBF1F0401CC0F30B0006
:1007F00040F4804040F400402168CA694CF6FF7321
:100800009A431043C861D4E9071001432068026885
:1008100022F0C00211430160D4E9030101432068C2
:10082000826848F2FF339A4311438160D4E905019D
:1008300008432168CA6822F0FF021043C86001E043
:100840000EE016E02068016841F0010101602564B6
:10085000202084F83D00256384F83E50002070BDC0
:1008600001EB4106431EB3FBF6F35B1CB3E701202B
:10087000C2E701EB4101401EB0FBF1F0401CC0F3A8
:100880000B00B7E7A086010080841E0000093D0030
:1008900040420F002DE9FF4F83B09A46DDE91197E2
:1008A00093460446DDF84080FFF72AFF054694F89A
:1008B0003D00202870D1192301227149204600955E
:1008C00001F0D6FA0028F5D194F83C00012863D055
:1008D000012084F83C0020680168C90703D1016841
:1008E00041F0010101602068016821F400610160AC
:1008F000222084F83D00402084F83E000026266433
:10090000C4F82480A4F82A90608D20855D48E062B8
:10091000CDE9007553465A462046049901F02AFA5B
:1009200000287CD1208DD0B1012821D00228206858
:1009300024D0416980690090208D032869D801285E
:100940002BD0514902283B464FF00002009559D068
:100950008846204601F08CFA002860D13CE02068EF
:10096000416981690091016841F40071016077E09B
:100970002068016821F480610160F0E7016821F4DA
:10098000806101602068016841F4006101602068B5
:1009900041698069009063E06FE02A46394620464D
:1009A00001F0E5FA98BB20680069616A08704EE0C2
:1009B0002068016841F40071016020680069616A83
:1009C0000870606A401C6062218D491E2185618D1E
:1009D000491E6185216838E02068016821F4806142
:1009E000016020680069616A0870606A401C60628A
:1009F000208D401E2085608D401E60853B46002274
:100A000041460095204601F033FA00B9D0E706E0F0
:100A1000FFE72A463946204601F0A9FA18B101201D
:100A200007B0BDE8F08F20680069616A0870606AED
:100A3000401C6062218D491E2185618D491E6185A2
:100A400021684A69D24352070AD409690170606A71
:100A5000401C6062208D401E2085608D401E608598
:100A6000208D00287FF468AF202084F83D0084F8B2
:100A70003E6084F83C600020D2E70220D0E700000E
:100A8000020010000000FFFF0400010010B586B056
:100A9000044614216846FFF73FFC1349206888424A
:100AA00020D112480021026842F002020260006870
:100AB00000F002000590C02000901220CDE9010155
:100AC000032003900420049069460948FFF712FDB3
:100AD00006481030016841F400110160006800F41C
:100AE0000010059006B010BD0054004030380240A0
:100AF0000004024002488168027811448160704716
:100B0000180000200B4810B5016841F40071016025
:100B1000016841F480610160016841F48071016005
:100B2000032000F099F80F2000F006F800F04AF8D2
:100B3000002010BD003C024030B505461C4887B07F
:100B40000024016841F001010160006806A900F07D
:100B50000100009001A800F0C9F900F0F7F915496B
:100B60004000B0FBF1F11548134A491E026040F203
:100B7000E732C0E90324C0E90114846100F053FDA9
:100B8000040012D10D4800F07DFD04000DD11920A4
:100B900000F034F8102D07D200222946192000F069
:100BA0003BF80748056000E0012407B0204630BD4F
:100BB0004438024040420F0000000140E40300209E
:100BC0001C0000200C4882B0016841F480410160A3
:100BD000006800F4804000900748001F016841F061
:100BE000805101600068002200F0805000900F21C9
:100BF000901E02B000F010B844380240002809DB13
:100C000000F01F02012191404009800000F1E02026
:100C1000C0F8001170470000F0B40E4B1B680C4682
:100C2000C3F30223C3F10705042D00D90425191DC0
:100C3000072901D2002300E0DB1E012606FA05F198
:100C4000491E214099409E40761E16403143F0BC1B
:100C500002F028B80CED00E0064900F00702086831
:100C60004FF6FF03184040EA0220034A1043086091
:100C7000704700000CED00E00000FA052DE9F84394
:100C8000054600684FF00109C1074FF0000601D189
:100C9000400727D5DFF80C81C8F86860FFF730FD02
:100CA0000746414C05E000BFFFF72AFDC01B0228A4
:100CB00057D820680001F7D468688101287A41EA92
:100CC0000070394984310860C8F86890FFF718FD52
:100CD000074604E0FFF714FDC01B022841D8206836
:100CE0000001F7D52878800752D52F484030016899
:100CF00041F08051016000682C4C00F08050009061
:100D0000206840F480702060FFF7FAFC074604E09A
:100D1000FFF7F6FCC01B022823D82068C005F7D5D2
:100D2000214C7034206810F4407020D0A98901F45F
:100D3000407181421BD020681D4920F44070C1F8E9
:100D400000900E6020602068C00710D0FFF7D8FC2C
:100D5000064641F2883707E0FFF7D2FC801BB84215
:100D600002D90320BDE8F88320688007F4D5E9683C
:100D70000D48C1F301220830032A0BD0016821F489
:100D8000F81101602068A989C1F30B0108432060B4
:100D90000020E7E70268074B22F4F81219400A43E3
:100DA0000260EFE700004742003802400070004058
:100DB000400E4742FFFCFF0F2DE9F0470E460500AD
:100DC00065D0DFF81481D8F80000F7B200F0070012
:100DD000B04207D288F80070D8F8000000F0070091
:100DE000B04254D128683D4C810712D5400703D545
:100DF000206840F4E05020602878000703D5206880
:100E000040F4604020602068A96820F0F0000843AA
:100E100020602878C0072DD030496868083901283B
:100E200012D0022813D0032811D00968890700299D
:100E30002DDA216821F0030101432160FFF760FCF6
:100E4000814641F2883A0EE009688903EFE70968B4
:100E50008901ECE7FFF754FCA0EB0901514502D9E9
:100E60000320BDE8F0872068696800F00C00B0EB53
:100E7000810FEFD1D8F80010404601F00701B142D0
:100E800007D90770006800F00700B04201D00120C8
:100E9000E7E72878400705D52068E96820F4E050A6
:100EA000084320602878000706D52068296920F4C7
:100EB000604040EAC100206000F058F82168084A0C
:100EC000C1F30311515CC840064908600648006838
:100ED000FFF732FE0020C4E7003C02400838024021
:100EE0000C440008240000201C0000200F22026097
:100EF0000C4A136803F003034360136803F0F00324
:100F00008360136803F4E053C36012684FF4E05346
:100F100003EAD20202610448006800F0070008609A
:100F20007047000008380240003C02400448054970
:100F300000680968044AC1F38221515CC8407047C7
:100F400024000020083802401C44000804480549D9
:100F500000680968044AC1F34231515CC8407047D7
:100F600024000020083802401C440008154810B531
:100F7000006810F00C02144813D04110042A0FD05E
:100F8000082A0ED10F4C241F2268236802F03F026A
:100F90005B0207D52068C0F38810A0FB010106E0C2
:100FA000084610BD2168C1F38811A1FB0001002390
:100FB000FFF768F92168C1F30141491C4900B0FB02
:100FC000F1F010BD083802400024F4002DE9F84F7C
:100FD00004006ED02078DFF84C93C007A9F1040517
:100FE0004AD009F104000168C1F38101012908D048
:100FF0000068C0F3810002280AD1D9F8000040023D
:1010000006D52868800337D560680028E1D033E032
:101010006068B0F5803F10D0B0F5A02F286810D0E0
:1010200020F480302860286820F4802028606068E0
:10103000A8B1FFF765FB06460DE0286840F4803054
:10104000F4E740F480202860F7E700BFFFF758FB83
:10105000801B642873D828688003F7D50CE0FFF75D
:101060004FFB064605E000BFFFF74AFB801B6428E4
:10107000F0D828688003F7D42078DFF8AC828007A6
:101080004FF0000A3ED5A748001D016811F00C0F73
:1010900008D00068C0F3810002280BD1D9F8000005
:1010A000400207D42868800716D5E068012800D1DF
:1010B00012E033E1E068B8B10120C8F80000FFF7A2
:1010C0001FFB064605E000BFFFF71AFB801B022846
:1010D000C0D828688007F7D52868216920F0F80073
:1010E00040EAC10028600DE0C8F800A0FFF708FB47
:1010F000064604E0FFF704FB801B02281FD828687F
:101100008007F7D42078000722D5864F8748616989
:10111000703771B101210160FFF7F2FA064604E071
:10112000FFF7EEFA801B022809D838688007F7D548
:101130000EE0C0F800A0FFF7E3FA064605E082E003
:10114000FFF7DEFA801B02287DD838688007F7D4C5
:101150002078400768D5DFF8CCB100270BF13C0BB5
:10116000DBF80000C0000BD4DBF8001041F0805128
:10117000CBF80010DBF80000012700F08050009051
:101180006B4E3068C00510D4306840F48070306019
:10119000FFF7B6FA009005E0FFF7B2FA0099401A9F
:1011A000022850D83068C005F6D55E4EA0686C366F
:1011B00001280FD00528306810D020F001003060E1
:1011C000306820F004003060A068B8B1FFF798FAEA
:1011D00000900FE0306840F00100F4E740F00400B8
:1011E0003060F7E7FFF78CFA0099411A41F2883036
:1011F000814266D830688007F4D50EE0FFF780FAA8
:10120000009007E0FFF77CFA0099411A41F288301C
:10121000814256D830688007F4D42FB1DBF8001033
:1012200021F08051CBF80010A069C8B33D49091DD9
:101230000968C1F3810102294AD00228504607D02B
:10124000C8F8600000E03CE0FFF75AFA04463BE0D3
:101250004746C8F86000FFF753FA064605E000BFAE
:10126000FFF74EFA801B02282BD828688001F7D49C
:10127000D4E907010843A16A2E4A490802EB01415B
:10128000626A41EA8211084394F82C1040EA016135
:10129000C9F8001001203866FFF732FA044606E06C
:1012A0003EE000BFFFF72CFA001B022809D828688F
:1012B0008001F7D534E000BFFFF722FA001B0228B7
:1012C00002D90320BDE8F88F28688001F4D427E014
:1012D0000128F7D0D9F80000E26900F480019142BA
:1012E0001CD1226A00F03F01914217D147F6C0712C
:1012F000626A0140B1EB821F10D1A26A4FF0FF3346
:1013000000F4403103EB5202B1EB024F06D194F8E6
:101310002C1000F07060B0EB016F01D00120D1E71C
:101320000020CFE70438024000004742800E4742C9
:10133000007000400000FFFF10B500680B464168D8
:101340000D480140080CD870C1F304245C7001F012
:101350003F049C70C1F34231197052B901F0E2F8B8
:10136000D870587801F0DEF85870987801F0DAF803
:101370009870002010BD00003FFFFF0010B50B4625
:101380000168896A596001680969C1F30E019960B1
:10139000006801680D480140C1F305401870C1F3B1
:1013A00006245C7001F07F049C70890DD97052B9DD
:1013B00001F0B8F81870587801F0B4F858709878BF
:1013C00001F0B0F89870002010BD00007F7F7F0012
:1013D00010B5040002D0607F10B106E0012010BDFE
:1013E00000202077204600F039F80220607721683D
:1013F000CA204862216853204862204601F0A8F8BC
:1014000030BB20688168144A114081602168886877
:1014100062681043D4E904231A43104388602168AA
:10142000E068086120680169228941EA024101619E
:10143000204601F0B1F858B921680A6C22F48022E4
:101440000A6421680A6CA3691A430A64012161775E
:101450002268FF21516210BDBFFF8FFF1FB5002121
:1014600000910191029103910068084988420CD1D2
:1014700002200090000203906846FFF7FFFB08B1CE
:10148000FEF7C8FF0249012008601FBD0028004088
:101490003C0E474270B50446007F0B46012819D028
:1014A0000126267702206077B2B19878D97840EA91
:1014B000014558781978000240EA41300543216817
:1014C000CA204862216853204862204601F040F853
:1014D000D0B122E0022070BD5878C10603D500F0DB
:1014E000EF000A305870D87801F025F802045878D7
:1014F00001F021F842EA0022987801F01CF802433A
:10150000187842EA4035DAE7074805402068456028
:10151000204601F041F800B966772268FF21516248
:101520000021217770BD00003FFFFF002DE9F04151
:101530000446007F0D46012823D04FF0010884F8AF
:101540001C80022060772068002780684FEA406096
:10155000D2B1002800DBEF70A878297840EA014674
:101560006878E978000240EA815006432168CA2081
:101570004862216853204862204600F0E9FFB8B174
:101580002CE00220BDE8F081002800DBEF70287815
:1015900000F0D1FF0204687800F0CDFF42EA00229B
:1015A000A87800F0C8FF0243E87842EA8056DDE7F9
:1015B0000D480640206806602068816821F480217B
:1015C0008160D5E90301084321688A681043886077
:1015D000204600F0E1FF08B984F81D802268FF2151
:1015E00051622777CEE700007F7F7F0070B5044609
:1015F0000068C16821F0A001C160FFF781F80546CD
:101600004FF47A7607E000BFFFF77AF8401BB0424C
:1016100001D9032070BD2068C0688006F4D5002081
:1016200070BD7047704710B5040003D094F83D00BA
:1016300010B107E0012010BD002084F83C002046D6
:1016400000F01EF8022084F83D00211D206801F002
:1016500057F8012084F8460084F83E0084F83F00E3
:1016600084F8400084F8410084F8420084F8430084
:1016700084F8440084F8450084F83D00002010BD43
:101680007047000090F83D10012901D001207047FB
:10169000022180F83D100168CA6842F00102CA6068
:1016A00000681149884214D0B0F1804F11D00F4921
:1016B00088420ED00E4988420BD00E49884208D08D
:1016C0000D49884205D00D49884202D00C49884214
:1016D00004D1816801F00701062903D0016841F0B7
:1016E000010101600020704700000140000400403B
:1016F00000080040000C0040000401400040014090
:1017000000180040704770B50446006801694FF04A
:101710000005C943890715D4C168C943890711D495
:10172000E91E01610120207720688069800720463A
:1017300002D0FFF7E7FF04E000F098F8204600F041
:1017400096F8257720680169C943490717D4C1680D
:10175000C943490713D46FF00401016102202077C7
:101760002068806910F4407F204602D0FFF7CAFF4E
:1017700004E000F07BF8204600F079F82577206837
:101780000169C943090716D4C168C943090712D4BE
:101790006FF008010161042020772068C06980078C
:1017A000204602D0FFF7AEFF04E000F05FF82046CD
:1017B00000F05DF8257720680169C943C90617D490
:1017C000C168C943C90613D46FF010010161082034
:1017D00020772068C06910F4407F204602D0FFF7D0
:1017E00091FF04E000F042F8204600F040F8257731
:1017F00020680169C943C90708D1C168C943C9073D
:1018000004D1891E0161204600F032F82068016988
:10181000C943090609D4C168C943090605D46FF054
:10182000800101612046FFF7FCFE20680169C94381
:10183000490609D4C168C943490605D46FF040017F
:101840000161204600F01EF820680169C94389063D
:101850000BD4C168C943890607D46FF02001016128
:101860002046BDE87040FFF7DDBE70BD7047704791
:1018700000680349884201D1FFF73CB97047000076
:10188000000001407047704770470000F8B50168DC
:1018900004460868CA684B6910F00F0F4FF0000546
:1018A00059D003F0010602F49077374365D0C107A1
:1018B00005D0D10503D5216C41F001012164410718
:1018C00005D5D90703D0216C41F0020121648107BD
:1018D00005D5D90703D0216C41F00401216401072B
:1018E00007D502F02001314303D0216C41F00801FB
:1018F0002164216C00293AD0800604D5900602D5D7
:10190000204600F090FF20684069216CC0F38010F1
:10191000090700D460B3204600F05EFF20684069EC
:10192000400621D52068143050E8001F21F0400106
:1019300040E80012002AF5D1A06BA8B16C490165FE
:10194000A06BFEF7B2FD002811D0A06B016D01B0B5
:10195000BDE8F040084783060FD593060DD5204615
:10196000BDE8F84000F05FBF2046FFF78DFFF8BDEF
:101970002046FFF789FF2564F8BD266B2023012E42
:1019800079D1C60677D5D60675D50868486800901F
:101990004869400640D5A16B086840680004000C07
:1019A000EAD0A28D8242E7D9E085C869B0F5807F90
:1019B0002DD020680C3050E8001F21F4807140E8E1
:1019C0000012002AF5D12068143050E8001F21F0E1
:1019D000010140E80012002AF5D12068143050E8D7
:1019E000001F21F0400140E80012002AF5D184F8E0
:1019F0003E30256320680C3050E8001F21F01001B4
:101A000040E80012002AF5D1A06BFEF705FDA08D7D
:101A1000E18D401A81B229E0A08DE18D401A81B29A
:101A2000E08D0028A8D00029A6D020680C3050E80E
:101A3000002F22F4907240E80026002EF5D1206895
:101A4000143050E8002F22F0010240E80026002E5A
:101A5000F5D184F83E30256320680C3050E8002F23
:101A600022F0100240E80023002BF5D12046FFF7BA
:101A70000AFFF8BDFFE705062BD5150629D594F812
:101A80003D002128F5D1A068B0F5805F01D1206923
:101A9000B0B1206A411C2162216800784860E08C66
:101AA000401E0004000CE084E3D12068C16821F0EE
:101AB0008001C1602068C16841F04001C160D8E781
:101AC000206A0088C0F308004860206A801C2062F9
:101AD000E5E74006CDD55006CBD5CA68204622F0B2
:101AE0004002CA6084F83D3000F02BF9C1E70000E5
:101AF000C927000870B5040004D094F83D00002503
:101B000010B106E0012070BD84F83C50204600F082
:101B100023F8242084F83D002068C16821F4005196
:101B2000C160204600F0E0FE2068016921F4904188
:101B300001612068416921F02A0141612068C16882
:101B400041F40051C1602564202084F83D0084F8F0
:101B50003E00002070BD0000F0B587B0044614219F
:101B60006846FEF7D9FB274F236800222649022446
:101B7000032507262548BB421CD1234B14331F687D
:101B800047F010071F601B6803F0100305930B68F4
:101B900043F001030B60096802AB01F001010591FC
:101BA0006902CDE9001483E864006946FEF7A2FCEF
:101BB00007B0F0BD164FBB42FAD1134B10331F686C
:101BC00047F400371F601B6803F4003305930B686C
:101BD00043F001030B60096802AB01F001010591BC
:101BE0000C21CDE9001483E864006946FEF782FC0D
:101BF000002205212620FFF70FF82620FEF7FEFF22
:101C0000D6E70000001001403038024000000240DA
:101C10000044004090F83E30202B0ED159B152B113
:101C200090F83C30012B08D0012380F83C30002391
:101C3000036300F0DFBE0120704702207047000000
:101C400008B500680E49884218D100200D490346A6
:101C50000090481E6A46C06802F090F801220949C7
:101C60000948FFF7D7FF0098002807D007494FF031
:101C700080500860BFF34F8FBFF36F8F08BD000027
:101C80000044004001000020A003002004ED00E01B
:101C90002DE9F843044690F83D001F4616460D46D0
:101CA00020284CD1C5B1BEB194F83C00012846D0E3
:101CB000012084F83C004FF00008C4F84080212047
:101CC00084F83D00FEF71CFDA6848146E684A068EA
:101CD000B0F5805F03D004E00120BDE8F8832069FF
:101CE00028B12E465FF0000584F83C800EE0002607
:101CF000FAE78021204600F09AFEA0B9AEB116F8AE
:101D0000010B21684860E08C401EE084E08C4B466B
:101D10004FF0000200970028EBD14FF04001204621
:101D200000F085FE30B10320D7E735F8020BC0F391
:101D30000800E6E7202084F83D000020CDE70220DF
:101D4000CBE77047FEE701684A69D24352050FD4DA
:101D50006FF480624A61002140F8301F20224273F4
:101D60008173026942F0040202610173012070472D
:101D7000002070472DE9F84F0446006889460B9D06
:101D800001689846174641F4806101602068016847
:101D900041F48071016000954FF0011B002259460B
:101DA00020460A9B00F064F84FF4007A40B12068A6
:101DB0000068C00501D5C4F840A00320BDE8F88F35
:101DC000216809F0FE0008612B46284920460A9A3E
:101DD00000F082F8F0BB20684169806900902A46D3
:101DE00020460A9900F0F6F840B1206C04283AD158
:101DF0002068016841F40071016034E0FEB2B8F17E
:101E0000010F09D02168380A08612A4620460A993C
:101E100000F0E0F80028E8D1206806612A46204654
:101E20000A9900F0D7F80028DFD12068016841F452
:101E30008071016000950022594620460A9B00F0FF
:101E400017F80028B3D1216809F0FF0040F0010025
:101E5000086100E007E02B46044920460A9A00F09A
:101E60003BF80028AAD00120A8E7000002000100EA
:101E70002DE9F0471E4690460D460446C1F307473C
:101E8000DDF8209008E0701C06D0FEF739FCA0EBCE
:101E90000900B0420FD876B12068012F18D08069B0
:101EA00025EA00000004000C14D000214145EAD0CE
:101EB0000020BDE8F087002044F8300F2021617336
:101EC000A073216941F02001216120730120F0E716
:101ED0004069E5E70121E9E72DE9F0479A46914697
:101EE0000E46044600254FF02008C1F3074725E0C1
:101EF00020684069C043400514D42068016841F45B
:101F00000071016021686FF480604861256384F886
:101F10003D8084F83E50206C40F00400206484F83A
:101F20003C501FE0B9F1FF3F08D0FEF7E9FBA0EB02
:101F30000A0149450CD8B9F1000F09D02068012FDA
:101F400013D0806926EA00000004000C0BD0CFE714
:101F500044F8305F84F80D80A573206940F02000BC
:101F6000206125730120BDE8F0874069EAE72DE98B
:101F7000F041002590460E460446202717E04069B0
:101F8000C043C0060CD454F8301B6FF010004861F9
:101F900044F810596777A577206A2062257717E003
:101FA000FEF7AEFBA0EB0800B04208D83EB12068B7
:101FB0004169C9434906E2D40020BDE8F08144F8F4
:101FC000305F6773A573206940F02000206125739E
:101FD0000120F2E770B516460D4604460DE0204696
:101FE000FFF7B1FE08B1012070BD681C05D0FEF7F7
:101FF00087FB801BA84207D835B120684069C043E1
:102000000006ECD4002070BD002044F8300F2021E1
:102010006173A073216941F0200121612073E2E71F
:1020200070B586B014460D4606466422062103A804
:102030008DE8070001233B22D0210B48FEF72AFC44
:1020400028B1002020802880308006B070BDBDF807
:102050000C0040BA3080BDF80E0040BA2880BDF8B0
:10206000100040BA2080F0E7E802002010B5AAB0C6
:10207000002206210A2001F06BFD294C0028A060F7
:102080004CD001210022080201F062FDE060E8B3BB
:102090000122611C2348FFF7BDFD1C22224968462E
:1020A000FEF721F90021684600F0FAFF1E491C22C4
:1020B0001C3107A8FEF717F9002107A800F0F0FF70
:1020C00019491C2238310EA8FEF70DF900210EA87F
:1020D00000F0E6FF14491C22543115A8FEF703F95D
:1020E000002115A800F0DCFF0F491C2270311CA84C
:1020F000FEF7F9F800211CA800F0D2FF0A49206180
:102100001C228C3123A8FEF7EEF800E007E0002146
:1021100023A800F0C5FF60612AB010BDFEE7FEE70E
:1021200000000020A003002064430008114808B507
:10213000016841F004010160016801F004010091AF
:10214000016841F080010160016801F080010091A7
:10215000016841F001010160016801F00101009195
:10216000016841F002010160006800F00200009087
:1021700008BD0000303802400D4810B50B49016021
:102180000C49416000214FF480428160C0E9031294
:1021900041618161C1610162FEF7B8FA002803D094
:1021A000BDE81040FEF736B910BD000000540040F5
:1021B000E8020020A086010010B586B01421684610
:1021C000FEF7AAF81D4800241B490594C0E9001435
:1021D0007F218160FF21C0E9031444618461FFF71E
:1021E000F7F808B1FEF716F911208DF80000592014
:1021F0008DF8010055208DF80200039401226946F4
:102200000E480494FFF792F908B1FEF703F9012094
:102210008DF814008DF815008DF8160002468DF823
:10222000174005A90548FFF735F9002801D0FEF74A
:10223000F1F806B010BD0000002800403C0300206B
:102240000C4810B50A4901604FF4E13141600021AA
:1022500081600C22C160C0E904128161C161FFF795
:1022600049FC002803D0BDE81040FEF7D3B810BDEC
:10227000001001405C0300200C4810B50A490160C1
:102280004FF4E1314160002181600C22C160C0E95E
:1022900004128161C161FFF72DFC002803D0BDE865
:1022A0001040FEF7B7B810BD00440040A003002066
:1022B00090B02E4905ADD1E90001CDE90201002021
:1022C000014645F82010401C88460328F9DB4FF0F2
:1022D000FF090DF1080A00220FA92548FFF72CF885
:1022E000002208A92248FFF749F858B19DF822308A
:1022F0009DF821209DF820101EA000F0A9FC4FF4AD
:102300007A702FE09DF821609DF820704E4528D00E
:10231000B14600244FF0010B1AF814105046B94290
:102320000FD100EB44025278B2420AD155F8240092
:10233000A0B93246394615A000F08AFC45F824B011
:102340000CE055F82420012A08D1B94204D10AEB47
:1023500044004078B04201D045F82480641C032C2E
:10236000DADB642001F07CFAB5E700005C4300088A
:102370003C03002054696D653A20253032643A25CB
:102380003032643A253032640D0A00005B52454D0C
:10239000494E4445525D2054616B65206D6564690A
:1023A00063696E65206E6F77212054696D653A20F0
:1023B000253032643A253032640D0A00FEE7FEE72C
:1023C0001CB52C4E2C4C4FF0FF3A4FF0C8674FF025
:1023D00010784FF0000952466946A06801F02EFDC2
:1023E0000128F8D1BDF80020BDF80200BDF80410A6
:1023F00012FB02F210FB002011FB010501F05AFE56
:10240000227832B1012A0ED0022A1ED084F8009020
:10241000E1E7BD42DFDD012121706060294617A0A0
:1024200000F016FCD7E7B54204DA022121706060A3
:102430001AA007E06168401AB0F5FA7FCBD984F89A
:1024400000901CA000F004FCC5E7224A224B2A445D
:102450009A4208D26168401AB0F5FA6FBBD984F885
:1024600000901EA0EEE74545B5DD84F8009025A05C
:10247000E8E70000711D5C0000000020496D7061FC
:102480006374206465746563746564212073756D7D
:102490005F73713D256C640D0A000000467265652E
:1024A0002066616C6C206465746563746564210DDD
:1024B0000A00000052657365742066726F6D2069B2
:1024C0006D70616374202874696D656F7574290D72
:1024D0000A0000006F3D5CFF98D9CC002A2A2A2010
:1024E00046414C4C20444554454354454421202A00
:1024F0002A2A2053656E6420616C6572742E0D0A61
:102500000000000046616C6C2063616E63656C6C5A
:102510006564202875736572206D6F766564290D7A
:102520000A000000010901EB810100F00F0000EB3F
:102530004100C0B27047002103E0491C0A38C9B20B
:10254000C0B20A28F9D2090740EA116070470000BA
:102550002DE9F041044600680025C168490618D4F9
:10256000C16841F08001C160FEF7CAF806464FF429
:102570007A78042707E000BFFEF7C2F8801B4045C9
:1025800001D9677701252068C068400601D4002D75
:10259000F2D02846BDE8F08170B5044600680025F9
:1025A000C16821F08001C16020688068800606D47F
:1025B0002046FFF71BF810B104206077012528465C
:1025C00070BD000086B001F075FD0F4C059004AAA7
:1025D00003A902A8FFF724FDBDF80800ADF800002C
:1025E000BDF80C00ADF80200BDF81000ADF8040015
:1025F00000231A466946A06801F010FB322105A8A5
:1026000001F054F9E3E7000000000020012000F091
:102610003BFDFBE7012000F037FDFBE710B5502044
:1026200080F31188BFF34F8FBFF36F8F01F048FD28
:1026300018B104494FF080500860002080F31188E1
:1026400010BD000004ED00E030B593B030216846C5
:10265000FDF762FE14210CA8FDF75EFE1F48002561
:10266000016841F080510160006800F080501190D5
:102670001B48016841F4804101600068022400F4B5
:1026800080401190092000904FF48030019001208B
:10269000CDE9050480050790082008904FF4A87044
:1026A000CDE9090404200B906846FEF78FFC08B1C1
:1026B00072B6FEE70CA90F2081E831004FF4A0505C
:1026C0000F904FF48050109005210CA8FEF774FB7A
:1026D000002801D072B6FEE713B030BD403802408A
:1026E000007000400248016841F4700101607047C9
:1026F00088ED00E00148FFF706B80000E403002081
:10270000F0B50268254C264D264E274F274B4FF03B
:10271000804CA04209D0604507D0A84205D0B04205
:1027200003D0B84201D0984204D122F0700E4A681A
:1027300042EA0E02A0421BD0604519D0A84217D031
:10274000B04215D0B84213D0984211D0184DA842CB
:102750000ED0184DA8420BD0174DA84208D0174DE7
:10276000A84205D0164DA84202D0164DA84203D16A
:1027700022F44075CA682A434D6922F080022A4338
:1027800002608A68C2620A688262A04201D09842EE
:1027900001D10969016301214161F0BD00000140DF
:1027A0000004004000080040000C0040000401400C
:1027B0000040014000440140004801400018004032
:1027C000001C00400020004010B5806B0021C18536
:1027D000C184FFF759F810BD01680C3151E8002F92
:1027E00022F4907241E80023002BF5D101681431E6
:1027F00051E8002F22F0010241E80023002BF5D11F
:10280000016B012909D101680C3151E8002F22F038
:10281000100241E80023002BF5D1202180F83E1062
:1028200000210163704708B590F83E10222901D0BD
:10283000022008BD82684FF480539A4201D1016999
:1028400021B1816A9A421BD04AB10AE00268816ACA
:102850005268C2F308020A80816A891C08E0026992
:1028600072B10268526802F07F020A70816A491CE4
:102870008162C18D491E0904090CC18503D019E08C
:1028800002685268F1E70168CA6822F02002CA6053
:102890000168CA6822F48072CA6001684A6922F03D
:1028A00001024A61202180F83E10016B012903D00A
:1028B000FFF7C6F9002008BD0021016301680C3153
:1028C00051E8002F22F0100241E80023002BF5D13F
:1028D00001680A68D20602D50A6849680091818DAC
:1028E000FEF7D1FFE6E7000070B504460068016915
:1028F000E26821F44051114301612169A068E26955
:1029000008436169114308432168CA6849F20C63AE
:102910009A430243CA6020684169A26921F4407168
:102920001143416131492068884202D030498842D0
:1029300002D1FEF70BFB01E0FEF7F8FAE269002393
:10294000192164253226B2F5004F626828D0A0FB19
:102950000101930F9200FDF795FC0146B0FBF5F0E5
:102960006FF01802504301EB800006EB0010B0FB43
:10297000F5F000F0F002B1FBF5F002EB0012B1FB54
:10298000F5F06FF01803584301EB800006EB0010E0
:10299000B0FBF5F000F00F0021681044886070BDB6
:1029A000A0FB010192185B41FDF76CFC0146B0FBF6
:1029B000F5F00201B1FBF5F06FF01803584301EB9D
:1029C000800006EBC000B0FBF5F000F0F80002EB71
:1029D0004002B1FBF5F0584301EB800006EBC0006C
:1029E000B0FBF5F000F00700D6E700000010014052
:1029F0000014014081628285C28500210164222287
:102A000080F83E2080F83C10016921B10168CA6855
:102A100042F48072CA6001684A6942F001024A6168
:102A20000068C16841F02001C160002070472DE9B5
:102A3000F041984617460E460446069D27E0681C5E
:102A400025D02DB1FDF75CFEA0EB0800A8421ED9F1
:102A500020680C3050E8001F21F4D07140E80012CB
:102A6000002AF5D12068143050E8001F21F0010140
:102A700040E80012002AF5D1202084F83D0084F8B7
:102A80003E00002084F83C000320BDE8F08120686F
:102A9000006836EA000004D00020B842CFD0002001
:102AA000F3E70120F9E700000148FEF7EFBE000060
:102AB000A0030020FEE70000A2B040F6B83823A72C
:102AC00024A4404600F0CCFE25A0FDF793FC4FF473
:102AD000FA69494624A000F069F8244E4FF40055E5
:102AE00000282AD022A0FDF785FC49461EA000F050
:102AF0005DF810B33B4622A2802101A8009400F0AB
:102B0000B7F801A8FDF776FC43F6982116A000F06F
:102B10004DF890B120A0FDF76DFC414621A000F0DA
:102B200045F850B1002229463046FDF7E3FD4FF449
:102B30007A74204600F094FEFBE729463046FDF704
:102B4000D1FDC82000F08CFEF7E700003F3F576939
:102B500046693F003F3F576946693F3F000000001C
:102B600041540D0A000000004F4B000000080240D5
:102B700041542B43574D4F44453D310D0A00000051
:102B800041542B43574A41503D222573222C222584
:102B900073220D0A0000000041542B434946535252
:102BA0000D0A000053544149500000002DE9F34F35
:102BB000C1B00C4601F07EFA4FF47A714C438A465C
:102BC000B4FBFAF1471839E0E9464FF480754FF04D
:102BD000C808002401F06EFA1B4ADFF870B0B2FB9F
:102BE000FAF286184FF47A7118FB01F86D1E13E0A3
:102BF000142240A9DBF80C0001F020F901280BD1C8
:102C0000AC4204DA9DF8001109F80410641C01F0CC
:102C100051FAB8FBFAF1461801F04CFAB042E7D38A
:102C2000002C0BDD002109F8041068464199FDF7DE
:102C30007EFB18B1012043B0BDE8F08F01F03AFAF5
:102C4000B842C1D30020F6E7400D03000000002089
:102C50000FB4054B10B503A9044A029800F042F8DE
:102C600010BC5DF814FB00003D300008900000200F
:102C70000FB47CB50C0009AD01D0611E00E000214D
:102C8000CDE90001064B6A462946089800F02AF86B
:102C9000002C02D0009A002111707CBC5DF814FB5E
:102CA000273000080907090E002804DB00F1E020A6
:102CB00080F80014704700F00F0000F1E02080F869
:102CC000141D704702E008C8121F08C1002AFAD17B
:102CD00070477047002001E001C1121F002AFBD19C
:102CE000704700002DE9FF4F8BB08846054600264F
:102CF00006E025280BD0DDE90D1290476D1C761CEF
:102D000028780028F5D10FB03046BDE8F08F0024B8
:102D1000A146A2460122AE4900E0044315F8013F56
:102D2000203B02FA03F00842F7D128782A2810D075
:102D30006FF02F022878A0F13001092915D809EB8E
:102D4000890102EB410144F0020400EB01096D1C12
:102D5000F0E758F8041B5FEA010903D544F4005476
:102D6000C9F1000944F002046D1C28782E2817D1FF
:102D700015F8010F44F004042A280ED06FF02F023A
:102D80002878A0F1300109290AD80AEB8A0102EB60
:102D9000410100EB010A6D1CF2E758F804AB6D1C11
:102DA00028786C280FD006DC4C2817D068280DD066
:102DB0006A2814D104E0742810D07A280FD10DE0CD
:102DC00044F400140AE044F4801401E044F4401494
:102DD0006978814202D104F580146D1C6D1C28783D
:102DE000692865D006DC00288DD0632827D06428A8
:102DF00006D15DE06E2808D073282AD0752877D0D8
:102E0000DDE90D129047761CE0E0C4F30250022881
:102E100009D003280DD0D8F8001004280DD00E607A
:102E200008F10408D2E0D8F80010F217C1E90062F6
:102E3000F6E7D8F800100E80F2E70E70F0E718F809
:102E4000041B8DF8001000208DF80100EB460120D6
:102E500003E058F804BB4FF0FF3061074FF0000764
:102E600001D40AE07F1C57450DDA8742FADB1BF8D4
:102E700007100029F6D106E07F1C8742FCDB1BF817
:102E800007100029F8D1DDE90D23A9EB07008146E1
:102E9000214600F0B1F83044C61904E0DDE90D1216
:102EA0001BF8010B90477F1EF8D22146484688E068
:102EB00058F8040BC4F302514FF00A0B032900D158
:102EC00000B2042900D140B2002802DA40422D218C
:102ED00002E0210505D52B218DF82410012104E005
:102EE00006E0E10710D02021F6E708AF089113E0D3
:102EF00058F8040BC4F302514FF00A0B032900D118
:102F000080B2042900D1C0B20021EEE75946FDF796
:102F100027FA303107F8011D0028F7D1ADEB070083
:102F200000F1200B600702D524F4803401E04FF05B
:102F3000010ADA4502DDAAEB0B0000E00020824620
:102F400000EB0B0108980144A9EB01000A90E00393
:102F500006D4DDE90D2321460A9800F04DF8064419
:102F60004FF0000908E009A911F80900DDE90D1288
:102F7000904709F10109761C08998945F3DBE003C4
:102F80000CD5DDE90D2321460A9800F035F80644FA
:102F900004E0DDE90D1230209047761CBAF1000103
:102FA000AAF1010AF5DC05E0DDE90D1217F8010BC5
:102FB0009047761CBBF10001ABF1010BF4DC0A98E1
:102FC0002146DDE90D2300F005F806446D1C97E667
:102FD000092801002DE9F041044600251E46174648
:102FE000880404D405E039462020B0476D1C641ED7
:102FF000F9D52846BDE8F0812DE9F04104460025C9
:103000001E469046C80301D5302700E020278804DB
:1030100004D505E041463846B0476D1C641EF9D51D
:103020002846BDE8F0814A68002A06D00A68531C89
:103030000B6010704868401E4860704702490A687B
:103040001206FCD54860704700100140FDF75AFD9C
:10305000FFF7FAFAFFF76AF8FFF7F2F8FFF78CF8D4
:10306000FFF70AF9FFF7A8F8FFF700F800F013F8E8
:103070004FF4FA742046FDF72BFAFBE701460020D7
:10308000842900D0C81C704710B500B9012000F099
:10309000E7FB002010BD10B500F074FC002010BD4F
:1030A0007FB50D4604464169B0F9080081B1A169B8
:1030B00071B1FFF7E3FFD4E905128DE80700D4E909
:1030C00000102B46226900F0BCFF039004B070BDD5
:1030D000FFF7D4FF03A9CDE90001208A2B4682B275
:1030E000D4E9001000F080FF012801D00020EDE7B6
:1030F0000398EBE72DE9F041184C0F460546E668CA
:103100002068001D00F0BAFA38B9206890F82C1039
:1031100001208840216981432161681C07D137B1B2
:103120002168BDE8F0410E48091D00F0EBBA2068A7
:103130003544B5424560216805D2A06BBDE8F04139
:10314000091D00F0C7BA606B091D00F0C3FAA06A40
:10315000854200D2A562BDE8F08100002800002071
:10316000080500202DE9F041054600F0D7FA2E4C65
:10317000A068401CA06020682C4F10B1606940B36B
:103180002DE02560A068012829D1002606EB8600E5
:1031900007EB800000F090FA761C072EF6D3234848
:1031A0008C3000F089FA2148A03000F085FA1F48E1
:1031B000B43000F081FA1D48C83000F07DFA1B4899
:1031C000DC3000F079FA19488C3060631430A06369
:1031D00005E02068E96AC06A884200D82560606A14
:1031E000401C6062E96A0120226988401043206126
:1031F00001EB810007EB8000291D00F083FA00F04D
:10320000ADFA606900280CD02068E96AC06A88427B
:1032100007D207494FF080500860BFF34F8FBFF3CC
:103220006F8FBDE8F0810000280000202C040020F2
:1032300004ED00E030B4026C0B46002A0BD0C168EC
:103240001144C1608468A14201D30168C16030BCEF
:103250001846FDF748B830BC70472DE9F041856B42
:10326000174604460026026C82B1C7B1E068FDF73C
:103270003AF8E168206C091AE1602268914202D2B2
:10328000A168081AE060022F16D017E02068A8B9DC
:10329000A06800F07BFF06460020A0600EE060689A
:1032A000FDF721F8216C606808446060A1688842DD
:1032B00004D32068606001E005B16D1E6D1CA5633C
:1032C0003046BDE8F08110B5044690F8510058B181
:1032D00001280CD002280FD0502080F31188BFF3B2
:1032E0004F8FBFF36F8FFEE7206B00F04BFA204645
:1032F000BDE8104000F046BA10BD000010484FF481
:103300007051420706D0C01D0D4920F00700411A38
:10331000C1F570510B4A00230144C2E9000308398A
:10332000183A21F0070111604B600B600B1AC0E9DD
:10333000001393604FF000405360506170470000ED
:103340001C0500207C000020144E154CA6F1C80777
:103350004FF08058DFF84C9012E000BF00F0DEF92B
:10336000F068C568281D00F089F9A068401EA060BB
:103370006068401E606000F0F1F92846FFF7A3FF87
:1033800060680028EAD138680128F9D9C9F80080B6
:10339000BFF34F8FBFF36F8FF2E70000F4040020FC
:1033A0002800002004ED00E00346009829B10260E7
:1033B000C0E90F31012100F0EDBB0060F8E72DE915
:1033C000F0479A46DDE9098481466FF00303206BDC
:1033D00003EB82021044089E20F00707780707D00D
:1033E000502080F31188BFF34F8FBFF36F8FFEE73C
:1033F000002561B1002023180A5C83F834200A5CA0
:1034000012B1401C1028F6D384F8435001E084F830
:103410003450072E00D30626E662C4E91165201D4C
:1034200000F055F904F1180000F051F92461C6F1DB
:1034300007006462A061E56484F850505246494632
:10344000384600F005F92060B8F1000F01D0C8F847
:103450000040BDE8F087000030B5114900E011469A
:103460000A688242FBD34B685C18844203D14068EF
:1034700018444860084643681C18944209D1084C17
:10348000183C2468A24209D052681A4442600A6873
:1034900012680260814200D0086030BD0460F9E724
:1034A0007C00002010B5044600F038F9A06B28B16C
:1034B0005FF0000400F052F9204610BD0124F9E746
:1034C0000648416B096829B1416BC968C9684968F8
:1034D000816270474FF0FF31FAE7000028000020BA
:1034E00008484068401C4FF0500080F3118804D019
:1034F000BFF34F8FBFF36F8FFEE7BFF34F8FBFF365
:103500006F8FFEE7840000202DE9F041044600F0B3
:1035100005F994F9455004F1240609E0606A48B1C0
:10352000304600F07FFE08B100F00EFA6D1E6DB25D
:10353000002DF3DC4FF0FF3684F8456000F00EF903
:1035400000F0ECF894F9445004F1100709E0206908
:1035500048B1384600F066FE08B100F0F5F96D1E7E
:103560006DB2002DF3DC84F84460BDE8F04100F05A
:10357000F5B800002DE9F0410546002700F038FAC3
:10358000324E306808B9FFF7B9FE706905424ED176
:10359000C5B3083568070ED005F00700C0F1080074
:1035A0000544680707D0502080F31188BFF34F8F80
:1035B000BFF36F8FFEE72DB37068854237D823487D
:1035C000183001460C6801E020460C466168A942AB
:1035D00002D221680029F7D131688C4227D00768D0
:1035E0002168016060680837411B10290FD96019F4
:1035F000420708D0502080F31188BFF34F8FBFF3EC
:103600006F8FFEE713E041606560FFF725FF61689B
:103610007068401A7060B268904200D2B060706901
:1036200001430020C4E90001F068401CF06000F094
:1036300033FE780707D0502080F31188BFF34F8FF7
:10364000BFF36F8FFEE73846BDE8F08164000020CD
:1036500010B5031F4FF080741C601B1F21F0010187
:103660001960191F044B0B6014390A60091F6FF0B1
:10367000020244380A6010BDE1340008D0E901328A
:1036800001699A60D0E901235A604A68824201D1F7
:1036900082684A60002202610868401E086008686B
:1036A00070470000034B036003F154000860802062
:1036B000106070479400002000F108014FF0FF32C5
:1036C000C0E90112C1600161002101607047002161
:1036D0000161704730B50B685A1C02D000F1080236
:1036E00002E0026904E02246546825689D42FAD946
:1036F00053684B6099608A60516008610168491C99
:10370000016030BD42684A6093688B60936859607D
:10371000916008610168491C01607047502080F386
:103720001188BFF34F8FBFF36F8F0A494868401C61
:10373000486001280CD10848006810F0FF0F07D03E
:10374000502080F31188BFF34F8FBFF36F8FFEE7D8
:10375000704700008400002004ED00E0084948683C
:1037600028B1401E486001D180F311887047502075
:1037700080F31188BFF34F8FBFF36F8FFEE7000018
:103780008400002070B500282AD0164DA0F108044E
:1037900060686969084207D1502080F31188BFF33F
:1037A0004F8FBFF36F8FFEE722683AB1502080F34E
:1037B0001188BFF34F8FBFF36F8FFEE788436060C0
:1037C00000F016F960686968084468602046FFF7F1
:1037D00043FE2869401C2861BDE8704000F05CBDD4
:1037E00070BD0000640000204FF0E0200021016166
:1037F000816105494FF47A720968B1FBF2F1491E03
:1038000041610721016170472400002010B5FCF7D9
:1038100023FD114910280ED300F1E02090F8F003A9
:103820000A78904207D2502080F31188BFF34F8F5F
:10383000BFF36F8FFEE709480068896800F4E06015
:10384000884207D9502080F31188BFF34F8FBFF310
:103850006F8FFEE710BD0000840000200CED00E03B
:1038600010B5020014D00F48006B38B1502080F31F
:103870001188BFF34F8FBFF36F8FFEE700F0B8F8EA
:1038800000211046FFF736FC00F006FD002807D1A6
:1038900005494FF080500860BFF34F8FBFF36F8F23
:1038A00010BD00002800002004ED00E070B50D46BA
:1038B00004000BD095B11E4A106BB8B1502080F3B4
:1038C0001188BFF34F8FBFF36F8FFEE7502080F357
:1038D0001188BFF34F8FBFF36F8FFEE7502080F347
:1038E0001188BFF34F8FBFF36F8FFEE700F080F8B2
:1038F000D26823685919934204D98B420AD991425C
:1039000002D807E08B42FAD9881A21600021FFF71C
:10391000F1FB00E0216000F0BFFC002807D1054961
:103920004FF080500860BFF34F8FBFF36F8F70BDB3
:103930002800002004ED00E002490A6A0260C9681C
:10394000416070472800002001490120C86170478C
:103950002800002010B50C4650B1094909681831FB
:10396000FFF7B8FE2046BDE810400121FFF7C2BBBB
:10397000502080F31188BFF34F8FBFF36F8FFEE7A6
:103980002800002010B586B00024039405AA04A9DD
:1039900003A80494FFF786FEDDE903010094CDE956
:1039A000011000230EA11048059A00F04AFB0F49B0
:1039B0000028C86211D0502080F31188BFF34F8FC8
:1039C000BFF36F8F4FF0FF30886201204861CC60F9
:1039D00006B0BDE8104000F041B806B010BD0000D0
:1039E00049444C45000000004933000828000020ED
:1039F0000248016B491C0163704700002800002049
:103A00001448016B11B10121C16170470021C161EE
:103A10000169B1FA81F1C1F11F0101EB81020E4987
:103A200051F822306BB101EB820101F108034A68C1
:103A300052684A609A4201D152684A60D168016076
:103A40007047502080F31188BFF34F8FBFF36F8F03
:103A5000FEE70000280000202C0400201CB5374899
:103A60000168374A914207D1502080F31188BFF393
:103A70004F8FBFF36F8FFEE700683149491E8842C0
:103A800007D1502080F31188BFF34F8FBFF36F8FA2
:103A9000FEE72C4908780190FF20087008788DF81F
:103AA00000009DF800009DF8002000F0F00090421A
:103AB00007D0502080F31188BFF34F8FBFF36F8F73
:103AC000FEE79DF80000204C00F050002070072019
:103AD000A06005E09DF8002052008DF80020401EF7
:103AE0009DF800201206F5D4A060032807D05020CE
:103AF00080F31188BFF34F8FBFF36F8FFEE74FF452
:103B00004070A060019808700C482030016841F4B2
:103B100070010160016841F070410160FFF764FECF
:103B200000206060FCF760FB0848016841F04041FC
:103B30000160FCF745FB00201CBD000000ED00E02B
:103B400071C20F4100E400E08400002034EF00E087
:103B5000F8B517460E46050013D005FB06F04830B1
:103B6000FFF708FD04000AD0002084F8460004F1A5
:103B700048023B46314628460094FFF715FC204694
:103B8000F8BD502080F31188BFF34F8FBFF36F8FC4
:103B9000FEE7000070B50D46040025D0FFF7BEFD1E
:103BA000D4E90F20216802FB0011A1600021A1636C
:103BB000216861600A46D4E90F01401E00FB012123
:103BC000E16021464FF0FF3001F8440F487004F1E6
:103BD00010008DB1FFF770FD04F12400FFF76CFDBC
:103BE000FFF7BCFD012070BD502080F31188BFF3AA
:103BF0004F8FBFF36F8FFEE721690029F0D000F0EF
:103C000011FB0028ECD004494FF080500860BFF34E
:103C10004F8FBFF36F8FE3E704ED00E02DE9FF471F
:103C200082B01D468A464FF00008040003D0BAF166
:103C3000000F08D011E0502080F31188BFF34F8FA0
:103C4000BFF36F8FFEE7206C38B1502080F31188EE
:103C5000BFF34F8FBFF36F8FFEE7022D0AD1E06BEA
:103C6000012807D0502080F31188BFF34F8FBFF396
:103C70006F8FFEE700F010FA3F4F4FF000094FF052
:103C8000805648B9049838B1502080F31188BFF3AA
:103C90004F8FBFF36F8FFEE7FFF740FDA06BE16B27
:103CA000884207D3022D05D00498D0B1B8F1000F97
:103CB0001AD01EE02A4651462046FFF7CEFA616A26
:103CC00019B104F1240000F0ADFA20B13E60BFF359
:103CD0004F8FBFF36F8FFFF741FD012006B0BDE8A6
:103CE000F087FFF73BFD22E06846FFF725FE4FF027
:103CF0000108FFF733FDFFF77BFEFFF70FFD94F997
:103D00004400401C01D184F8449094F94500401CC3
:103D100001D184F84590FFF721FD04A9684600F021
:103D200029F930B12046FFF7EFFB00F0B5FA00208B
:103D3000D4E7FFF7F3FCA06BE16B884213D1FFF7E8
:103D40000DFD04F110000499FFF704FE2046FFF773
:103D5000DBFB00F0A1FA00289ED13E60BFF34F8F3D
:103D6000BFF36F8F98E7FFF7F9FC2046FFF7CCFB16
:103D700000F092FA90E7000004ED00E02DE9F04732
:103D80001F4690468946040003D0B9F1000F08D0C1
:103D900011E0502080F31188BFF34F8FBFF36F8F76
:103DA000FEE7206C38B1502080F31188BFF34F8FAD
:103DB000BFF36F8FFEE7022F0AD1E06B012807D017
:103DC000502080F31188BFF34F8FBFF36F8FFEE752
:103DD000FFF71CFD5020EFF3118680F31188BFF32D
:103DE0004F8FBFF36F8FA06BE16B884206D3022F1A
:103DF00004D0002086F31188BDE8F08794F945507F
:103E0000A06B3A4649462046FFF727FA681C04D0C3
:103E10006D1C84F845500120ECE7606A0028FAD058
:103E200004F1240000F0FEF90028F4D0B8F1000FEE
:103E3000F1D00121C8F80010EDE700002DE9F747A7
:103E4000002683B08A46040003D0BAF1000F08D0E0
:103E500011E0502080F31188BFF34F8FBFF36F8FB5
:103E6000FEE7206C38B1502080F31188BFF34F8FEC
:103E7000BFF36F8FFEE700F00FF9DFF8F4804FF02B
:103E800000094FF0805748B9059838B1502080F3A9
:103E90001188BFF34F8FBFF36F8FFEE7FFF73EFC34
:103EA000A56BC5B151462046FFF7C4F96D1EA56349
:103EB000206950B104F1100000F0B4F928B1C8F83D
:103EC0000070BFF34F8FBFF36F8FFFF747FC0120E8
:103ED00006B0BDE8F087059808B11EB106E0FFF70F
:103EE0003DFC27E06846FFF727FD0126FFF736FC7B
:103EF000FFF77EFDFFF712FC94F94400401C01D14E
:103F000084F8449094F94500401C01D184F8459010
:103F1000FFF724FC05A9684600F02CF8002820468D
:103F20000AD0FFF7F1FA00F0B7F92046FFF7BAFA26
:103F30000028B3D00020CBE7FFF7B4FA90B104F12A
:103F400024000599FFF706FD2046FFF7DDFA00F093
:103F5000A3F90028A2D1C8F80070BFF34F8FBFF3B8
:103F60006F8F9BE72046FFF7CFFA00F095F995E7B2
:103F700004ED00E02DE9F0410C46050011D0C4B17C
:103F8000FFF7CCFB174BDA686E682068911B471C63
:103F900017D02F681B6A9F4219D0964217D8012468
:103FA00010E0502080F31188BFF34F8FBFF36F8F65
:103FB000FEE7502080F31188BFF34F8FBFF36F8F60
:103FC000FEE70024FFF7CAFB2046BDE8F0818842E7
:103FD00005D9401A20602846FFF7AEFCF1E7002023
:103FE0002060DCE7280000202DE9FF5F8346DDE943
:103FF0000E87994616468A469000FFF7BBFA0500E1
:104000001CD05420FFF7B6FA040014D0002025631A
:1040100084F85100CDE90240CDE900874B46324695
:1040200051465846FFF7CBF92046FFF79BF8012091
:1040300004B0BDE8F09F2846FFF7A4FB4FF0FF3027
:10404000F6E7F0B585B0DDE90B640A9DA6B1DCB1F9
:10405000542700972663022684F85160002604AF97
:10406000CDE90246CDE90057FFF7A9F92046FFF751
:1040700079F8049805B0F0BD502080F31188BFF3A3
:104080004F8FBFF36F8FFEE7502080F31188BFF38F
:104090004F8FBFF36F8FFEE70548416919B1006B81
:1040A00018B10020704701207047022070470000BF
:1040B000280000200148C068704700002800002048
:1040C0002DE9F0412F4C0026206B28B1A069401C3F
:1040D000A0613046BDE8F081E5686D1CE56013D154
:1040E000606B006838B1502080F31188BFF34F8FA8
:1040F000BFF36F8FFEE7606BA16B6163A063206A03
:10410000401C2062FFF7DCF9A06ADFF87C80854262
:1041100009D3606B0068A0B1606BC068C76878683D
:10412000854211D2A0622068C06A00EB800158F875
:104130002100012800D90126E0690028C9D0012604
:10414000C7E74FF0FF30EDE7381DFFF797FAB86A81
:1041500018B107F11800FFF791FAF96A01202269F6
:1041600088401043206101EB810108EB8100391D7B
:10417000FFF7C8FAF86A2168C96A8842C9D30126DC
:10418000C7E70000280000202C04002070B50400C0
:104190004FF0000140D0214D2868844207D05020C4
:1041A00080F31188BFF34F8FBFF36F8FFEE7A06CD2
:1041B00038B1401EA064636CE26A9A422CD040B1D0
:1041C0002AE0502080F31188BFF34F8FBFF36F8F29
:1041D000FEE7201DFFF752FA114A012150B9E06AAB
:1041E00000EB800352F8233023B92B6901FA00F069
:1041F00083432B61606CE062C0F10700A061E06A5C
:104200002B6981401943296100EB800002EB80009B
:10421000211DFFF777FA0121084670BD2800002014
:104220002C0400202DE9F041C068C468ACB104F151
:1042300018000746FFF722FA154D286B0126A0B19A
:1042400039461448FFF75EFAE06A2968C96A88426D
:104250001CD90120EE61BDE8F081502080F3118867
:10426000BFF34F8FBFF36F8FFEE7201DFFF706FAF6
:10427000E16A2A6906FA01F01043286101EB810026
:104280000449B43901EB8000211DDBE70020E2E79F
:1042900028000020E00400202DE9F0472C4D0024E8
:1042A0002746286B38B1FFF739FA286B401E286380
:1042B000286B40B146E0502080F31188BFF34F8F48
:1042C000BFF36F8FFEE7A968224E0120D1B3A6F19C
:1042D000B40980463068E8B1F068C46804F1180099
:1042E000FFF7CCF9201DFFF7C9F9E06A2A6908FA3F
:1042F00000F11143296100EB800109EB8100211DD0
:10430000FFF700FAE06A2968C96A8842E2D3C5F873
:104310001C80DFE70CB1FFF7D3F8AC6944B1464627
:10432000FFF7CEFE00B1EE61641EF9D10020A86156
:10433000E86938B10849012738070860BFF34F8F93
:10434000BFF36F8FFFF70AFA3846BDE8F087000029
:1043500028000020E004002004ED00E008000C002C
:104360001200000034440008C525000802000000C7
:10437000000000000002000000000000000000003B
:1043800040440008C12300080000000000000000B5
:1043900000040000000000000000000028440008A5
:1043A000B92A00080000000000000000000400001E
:1043B000000000000000000054440008B122000882
:1043C00000000000000000000001000000000000EC
:1043D00000000000244400080D2600080000000032
:1043E000000000008000000000000000000000004D
:1043F0004C44000815260008FFFF000000000000E4
:10440000800000000000000000000000000000002C
:104410000000000001020304060708090000000074
:104420000102030455490000576946695461736BE2
:104430000000000053656E736F725461736B00006F
:1044400050726F636573735461736B00436F6D6D6E
:10445000000000004D65646963696E6552656D69B1
:104460006E646572000000008844000800000020AF
:1044700094000000C42C00081C4500089400002093
:104480008C440000D42C0008000000000000000054
:10449000000000000000000000000000000000001C
:1044A0000100000010000000000000000024F400E3
:1044B00000000000000000000000000000000000FC
:1044C00000000000000000000000000000000000EC
:1044D00000000000000000000000000000000000DC
:1044E00000000000000000000000000000000000CC
:1044F00000000000000000000000000000000000BC
:1045000000000000000000000000000000000000AB
:0C451000AAAAAAAA0000000000000000F7
:040000050800018965
:00000001FF
